:03000000020BD11F
:10002B00020B1720206865726520776520676F21AA
:10003B0020200020202020202020202020202020D5
:10004B002020200053657420796F75722076616CC7
:10005B0075657320005072657373206E657874201C
:10006B0020202020200053656C65637420736F6122
:10007B006B2074696D6500536F616B2074696D65DE
:10008B003A2020202020200053656C656374207378
:10009B006F616B2074656D7000536F616B207465BD
:1000AB006D703A2020202020200053656C6563740E
:1000BB00207265666C2074696D65005265666C20F4
:1000CB0074696D653A2020202020200053656C65F3
:1000DB006374207265666C2074656D700052656682
:1000EB006C2074656D703A202020202020006D61FB
:1000FB0078212020202020006D696E2120202020D7
:10010B00200068656C6C6F20706C656173650064B2
:10011B00696500646F6E65210073746F7070656440
:10012B0021004F76656E2053746174652030212059
:10013B002020004F76656E20537461746520312149
:10014B00202020004F76656E205374617465203239
:10015B0021202020004F76656E205374617465203A
:10016B003321202020004F76656E20537461746517
:10017B00203421202020004F76656E20537461744B
:10018B00652035212020200053657474696E6773D8
:10019B00205265736574212000737461746531207E
:0A01AB00202020202020202020002A
:1001B500C000788500D8FDD00022C000C001792894
:1001C5007868D8FED9FADAF6D001D00022D2941296
:1001D50001B5C29422A2E79283A2E69282A2E59299
:1001E50081A2E492801201D21201B5A2E39283A208
:1001F500E29282A2E19281A2E092801201D222D201
:10020500930201DAC2930201DAC294C0027A28127B
:1002150001BFD00274331202097433120209743219
:100225001202097428120209740C120209740112CF
:100235000209C0027A021201BFD00222E4936006CD
:10024500120204A380F62244404480020209C0E061
:10025500E8C4540F4430120204E8540F443012022B
:0402650004D0E022BF
:10026900753D00753F3C75409675412D7542D92203
:10027900C0E074011412024ED0E0C083C082C0E015
:10028900900193120241D0E0D082D083C0E0740182
:100299001412024CD0E0C083C082C0E090003E122C
:1002A9000241D0E0D082D0837AFA120269120AD3CD
:0302B900020C1D17
:1002BC00C0E0C0D0C000C001C002E4F538F539F58B
:1002CC003AF53BF53C7A20E533A2E779047830E641
:1002DC0033F608D9FA79057838E636D4F608D9F920
:1002EC00DAE5D002D001D000D0D0D0E022C0E0C0FE
:1002FC00D0C000C001C002E4F538F539F53AF53B41
:10030C00F53C7A20E533A2E779047830E633F60839
:10031C00D9FA79057838C0D0E6243320E70224D006
:10032C0020E30224FDD0D033F608D9EADAD6D00285
:10033C00D001D000D0D0D0E022C0E0C0D0C000C0EE
:10034C0001C0027A207905C3783CE613C0D030E7AF
:10035C000224D030E30224FDF618D0D0D9EC790475
:10036C007833E613F618D9FADADBD002D001D000D4
:10037C00D0D0D0E022C0E0C0D0E5302534F530E557
:10038C00313535F531E5323536F532E5333537F57E
:10039C0033D0D0D0E022C0E0C0D0C3E5309534F5E6
:1003AC0030E5319535F531E5329536F532E5339555
:1003BC0037F533D0D0D0E022C0E0C0D0C3E53095C3
:1003CC0034E5319535E5329536E53395379205D0E0
:1003DC00D0D0E022C0E0C0D0C3E5349530E53595EF
:1003EC0031E5369532E53795339205D0D0D0E02201
:1003FC00C0E0C0D0C205C3E53495307014E5359526
:10040C0031700EE53695327008E53795337002D2AF
:10041C0005D0D0D0E0221203FC2005030203E02219
:10042C001203FC2005030203C422C0E0C0F0C0D0BC
:10043C00C000C001C002C003E5308534F0A4F8A9A7
:10044C00F0E5318534F0A429F9E435F0FAE530858E
:10045C0035F0A429F9E5F03AFAE433FBE5328534BA
:10046C00F0A42AFAE5F03BFBE5318535F0A42AFA35
:10047C00E5F03BFBE5308536F0A42AFAE5F03BFBD2
:10048C00E5338534F0A42BFBE5328535F0A42BFB4A
:10049C00E5318536F0A42BFBE5308537F0A42BFB3A
:1004AC008B338A3289318830D003D002D001D0000E
:1004BC00D0D0D0F0D0E022C0E0C0D0C000C001C08D
:1004CC0002C003C0047C20E4F8F9FAFBC3E5303326
:1004DC00F530E53133F531E53233F532E53333F5CB
:1004EC0033E833F8E933F9EA33FAEB33FBC3E89535
:1004FC0034E99535EA9536EB95374013E89534F8A1
:10050C00E99535F9EA9536FAEB9537FB433001DC82
:10051C00BBD004D003D002D001D000D0D0D0E02288
:10052C0075AC0075AD0075B30075B40075B1007590
:10053C00B20043B30253B4FD53E1FD43B21053B2C6
:10054C00EF53E8F043E8052253E1FD53E8F043E8AC
:10055C000775F60043F68043E101C2EFD2EE30EFAF
:10056C00FDE5C3C4C0E0540FF9D0E054F045C2F827
:10057C00883089317532007533007534027535C693
:10058C007536007537001204367534FF75350F75E6
:10059C0036007537001204C37534A475356A753688
:1005AC00007537001203A27534647535007536007A
:1005BC00753700120436A830A931AD32AE33C00005
:1005CC00C001C005C00653E1FD53E8F043E80575D2
:1005DC00F60043F620C2EFD2EE30EFFDE5C3C4C007
:1005EC00E0540FFCD0E054F045C2FB8B308C3175DD
:1005FC0032007533007534E8753503753600753780
:10060C000012043675346475350075360075370084
:10061C001204C37534EF7535447536007537001206
:10062C00043675342975350075360075370012049B
:10063C00C3D006D005D001D000883489358D368ED4
:10064C00371203812253E1FD53E8F043E80775F6B6
:10065C000043F68043E101C2EFD2EE30EFFDE5C37B
:10066C00C4C0E0540FF9D0E054F045C2F88830898A
:10067C00317532007533007534027535C675360028
:10068C007537001204367534FF75350F75360075E5
:10069C0037001204C37534A475356A753600753786
:1006AC00001203A275346475350075360075370079
:1006BC00120436A830A931AD32AE33C000C001C02F
:1006CC0005C00653E1FD53E8F043E80575F6004319
:1006DC00F620C2EFD2EE30EFFDE5C3C4C0E0540FFC
:1006EC00FCD0E054F045C2FB8B308C317532007578
:1006FC0033007534E8753503753600753700120410
:10070C00367534647535007536007537001204C3C0
:10071C007534EF753544753600753700120436752F
:10072C0034297535007536007537001204C3D006B0
:10073C00D005D001D000883489358D368E37120320
:0E074C0081853034853135853236853337224C
:10075A00754900753E0022754A00D208C0E074014E
:10076A001412024ED0E0C083C082C0E090012D1264
:10077A000241D0E0D082D083C0E074011412024C4E
:10078A00D0E0C083C082C0E090003E120241D0E0B7
:10079A00D082D0831205541202BCC083C082C0E04A
:1007AA0090003E120241D0E0D082D083C0E07401B2
:1007BA001412024CD0E0C000A83C120253D000C070
:1007CA0000A83B120253D000C000A83A120253D02C
:1007DA0000C000A839120253D000C000A838120283
:1007EA0053D00075496475309675310075320075BD
:1007FA0033007534107535277536007537001204C5
:10080A0036C030C031C032C033120651D033D03274
:10081A00D031D030C20512042C20050302076675B8
:10082A004A00C0E074011412024ED0E0C083C082B4
:10083A00C0E090013E120241D0E0D082D083C0E0F5
:10084A0074011412024CD0E0C083C082C0E0900050
:10085A003E120241D0E0D082D083754914C3743C61
:10086A00954A50BE754A00C0E074011412024ED077
:10087A00E0C083C082C0E090014F120241D0E0D0B4
:10088A0082D083C0E074011412024CD0E0C083C04D
:10089A0082C0E090003E120241D0E0D082D08312A2
:1008AA0005541202BCC083C082C0E090003E12020E
:1008BA0041D0E0D082D083C0E074011412024CD03F
:1008CA00E0C000A83C120253D000C000A83B1202AC
:1008DA0053D000C000A83A120253D000C000A83971
:1008EA00120253D000C000A838120253D000754932
:1008FA00647530DC7531007532007533007534105B
:10090A00753527753600753700120436C030C03188
:10091A00C032C033120651D033D032D031D030C2B7
:10092A000512042C200503020871754A00C0E07400
:10093A00011412024ED0E0C083C082C0E090016070
:10094A00120241D0E0D082D083C0E07401141202B6
:10095A004CD0E0C083C082C0E090003E120241D079
:10096A00E0D082D083754914C3742D954A50BE7560
:10097A004A00C0E074011412024ED0E0C083C08263
:10098A00C0E0900171120241D0E0D082D083C0E071
:10099A0074011412024CD0E0C083C082C0E09000FF
:1009AA003E120241D0E0D082D0831205541202BC1A
:1009BA00C083C082C0E090003E120241D0E0D082E3
:1009CA00D083C0E074011412024CD0E0C000A83CED
:1009DA00120253D000C000A83B120253D000C0003C
:1009EA00A83A120253D000C000A839120253D0000C
:1009FA00C000A838120253D00075303C753100751A
:100A0A003200753300753410753527753600753721
:100A1A0000120436C030C031C032C033120651D081
:100A2A0033D032D031D030C205120422200503025D
:100A3A00097C754A00C0E074011412024ED0E0C06D
:100A4A0083C082C0E090011E120241D0E0D082D061
:100A5A0083C0E074011412024CD0E0C083C082C08B
:100A6A00E090003E120241D0E0D082D0837AFF1299
:050A7A000AD3120AD3AB
:100A7F0075AC0075AD0075B30075B40075B1007538
:100A8F00B200438E1043878075985253C4DF538949
:100A9F000F438920C28C438E085389F04389014349
:100AAF00B38053B47F75F60043F60143E101120A98
:100ABF00F5D2AF22C28CC28D758CBF758A28D28CAD
:100ACF00308DFD22120AC3DAFB22C000A83A1202AF
:100ADF0053D000C000A839120253D000C000A8386C
:100AEF00120253D0002275C80075CD7875CC907561
:100AFF00C98075CB7875CA90E4F544F545754A0001
:100B0F00C206439B80D2CA22C2CFC0E0C0D0C0343D
:100B1F00C035C036C037C030C031C032C0330544D5
:100B2F00E544700205450548C3E54894644007C293
:100B3F00907548008002D290E544B4640EE545B448
:100B4F000009E4F544F545054AD206D033D032D03A
:100B5F0031D030D037D036D035D034D0D0D0E032BD
:100B6F00C0E053E8F043E800C2EFD2EE30EFFDD221
:100B7F0004D203D202D201D200C3E5C394B0400520
:100B8F00C204D0E022C3E5C394904005C203D0E075
:100B9F0022C3E5C394704005C202D0E022C3E5C36F
:100BAF0094504005C201D0E022C3E5C39430400504
:100BBF00C200D0E022C3E5C394104003D0E022D09E
:100BCF00E02275817F12052C120A7F12020E12028B
:100BDF0069C0E074011412024ED0E0C083C082C01D
:100BEF00E090002E120241D0E0D082D083C0E0749A
:100BFF00011412024CD0E0C083C082C0E090003ECE
:100C0F00120241D0E0D082D0837AFA120AD37A321C
:100C1F00120AD3300604C206B2957A32120AD302F0
:100C2F000C31E53DB4004CC0E074011412024ED0FB
:100C3F00E0C083C082C0E090004F120241D0E0D0EC
:100C4F0082D083C0E074011412024CD0E0C083C084
:100C5F0082C0E0900060120241D0E0D082D0837A4F
:100C6F00FA120AD3120E91120E9C120F5F020C1D74
:100C7F00020D07B401FAC0E074011412024ED0E065
:100C8F00C083C082C0E0900071120241D0E0D082D8
:100C9F00D083C0E074011412024CD0E0C083C08234
:100CAF00C0E0900082120241D0E0D082D083C00514
:100CBF00AD30853F30753100753200753300C0E0BF
:100CCF00740B1412024CD0E01202BC120AD98D30F0
:100CDF00D005120E91C003C004C0057B3C7C78ADDB
:100CEF003F120ECF120F178D3FD005D004D0031235
:100CFF000F5F120E9C020C1DB40203020D10020DA9
:100D0F009CC0E074011412024ED0E0C083C082C0B8
:100D1F00E0900093120241D0E0D082D083C0E07403
:100D2F00011412024CD0E0C083C082C0E09000A436
:100D3F00120241D0E0D082D083C0E0740B141202B3
:100D4F004CD0E0C005C030C031C032C03385403018
:100D5F007531007532007533001202BC120AD9D0FA
:100D6F0030D031D032D033120E91C003C004C00541
:100D7F007B967CC8AD40120ECF120F178D40D00559
:100D8F00D004D003120F5F120E9C020C1DB4037916
:100D9F00C0E074011412024ED0E0C083C082C0E0E4
:100DAF009000B5120241D0E0D082D083C0E0740130
:100DBF001412024CD0E0C083C082C0E09000C61273
:100DCF000241D0E0D082D083C0E0740B1412024CE9
:100DDF00D0E0C005AD308541301202BC120AD98D6A
:100DEF0030D005120E91C003C004C0057B007C2DCE
:100DFF00AD41120ECF120F178D41D005D004D00385
:100E0F00120F5F120E9C020C1DC0E074011412022F
:100E1F004ED0E0C083C082C0E09000D7120241D014
:100E2F00E0D082D083C0E074011412024CD0E0C035
:100E3F0083C082C0E09000E8120241D0E0D082D09F
:100E4F0083C0E0740B1412024CD0E0C005AD3085A6
:100E5F0042301202BC120AD98D30D005120E91C049
:100E6F0003C004C0057BD97CF0AD42120ECF120F28
:100E7F00178D42D005D004D003120F5F120E9C02C3
:100E8F000C1D120B6FA204500122020279120B6F7C
:100E9F00A203500122853D30753100753200753344
:100EAF00007534047535007536007537001203FC74
:100EBF00D3200507E53D3400F53D22C3753D0022E3
:100ECF00120B6FA2025001228C3075310075320067
:100EDF007533008D34753500753600753700120384
:100EEF00E0D3300505ED3400FD22C3C0E0740B14D0
:100EFF0012024CD0E0C083C082C0E09000F9120211
:100F0F0041D0E0D082D08322120B6FA20150012278
:100F1F008B307531007532007533008D34753500A7
:100F2F007536007537001203C4D3300505ED9400F4
:100F3F00FD22C3C0E0740B1412024CD0E0C083C07A
:100F4F0082C0E0900103120241D0E0D082D0832210
:0B0F5F00120B6FA2005001220207617C
:00000001FF
