:03000000020B4DA3
:10002B00020A7520206865726520776520676F214D
:10003B0020200020202020202020202020202020D5
:10004B002020200053657420796F75722076616CC7
:10005B0075657320005072657373206E657874201C
:10006B0020202020200053656C65637420736F6122
:10007B006B2074696D6500536F616B2074696D65DE
:10008B003A2020202020200053656C656374207378
:10009B006F616B2074656D7000536F616B207465BD
:1000AB006D703A2020202020200053656C6563740E
:1000BB00207265666C2074696D65005265666C20F4
:1000CB0074696D653A2020202020200053656C65F3
:1000DB006374207265666C2074656D700052656682
:1000EB006C2074656D703A202020202020006D61FB
:1000FB0078212020202020006D696E2120202020D7
:10010B00200068656C6C6F20706C656173650064B2
:10011B00696500646F6E65210073746F7070656440
:10012B0021004F76656E2053746174652030212059
:10013B002020004F76656E20537461746520312149
:10014B00202020004F76656E205374617465203239
:10015B0021202020004F76656E205374617465203A
:10016B003321202020004F76656E20537461746517
:10017B00203421202020004F76656E20537461744B
:10018B00652035212020200053657474696E6773D8
:10019B00205265736574212000737461746531207E
:0A01AB00202020202020202020002A
:1001B500C000788500D8FDD00022C000C001792894
:1001C5007868D8FED9FADAF6D001D00022D2941296
:1001D50001B5C29422A2E79283A2E69282A2E59299
:1001E50081A2E492801201D21201B5A2E39283A208
:1001F500E29282A2E19281A2E092801201D222D201
:10020500930201DAC2930201DAC294C0027A28127B
:1002150001BFD00274331202097433120209743219
:100225001202097428120209740C120209740112CF
:100235000209C0027A021201BFD00222E4936006CD
:10024500120204A380F62244404480020209C0E061
:10025500E8C4540F4430120204E8540F443012022B
:0402650004D0E022BF
:10026900753D00753F3C75419675432D7545D922FD
:10027900C0E074011412024ED0E0C083C082C0E015
:10028900900193120241D0E0D082D083C0E0740182
:100299001412024CD0E0C083C082C0E090003E122C
:1002A9000241D0E0D082D0837AFA120269120A316F
:0302B900020B999C
:1002BC00C0E0C0D0C000C001C002E4F538F539F58B
:1002CC003AF53BF53C7A20E533A2E779047830E641
:1002DC0033F608D9FA79057838E636D4F608D9F920
:1002EC00DAE5D002D001D000D0D0D0E022C0E0C0FE
:1002FC00D0C000C001C002E4F538F539F53AF53B41
:10030C00F53C7A20E533A2E779047830E633F60839
:10031C00D9FA79057838C0D0E6243320E70224D006
:10032C0020E30224FDD0D033F608D9EADAD6D00285
:10033C00D001D000D0D0D0E022C0E0C0D0C000C0EE
:10034C0001C0027A207905C3783CE613C0D030E7AF
:10035C000224D030E30224FDF618D0D0D9EC790475
:10036C007833E613F618D9FADADBD002D001D000D4
:10037C00D0D0D0E022C0E0C0D0E5302534F530E557
:10038C00313535F531E5323536F532E5333537F57E
:10039C0033D0D0D0E022C0E0C0D0C3E5309534F5E6
:1003AC0030E5319535F531E5329536F532E5339555
:1003BC0037F533D0D0D0E022C0E0C0D0C3E53095C3
:1003CC0034E5319535E5329536E53395379205D0E0
:1003DC00D0D0E022C0E0C0D0C3E5349530E53595EF
:1003EC0031E5369532E53795339205D0D0D0E02201
:1003FC00C0E0C0D0C205C3E53495307014E5359526
:10040C0031700EE53695327008E53795337002D2AF
:10041C0005D0D0D0E0221203FC2005030203E02219
:10042C001203FC2005030203C422C0E0C0F0C0D0BC
:10043C00C000C001C002C003E5308534F0A4F8A9A7
:10044C00F0E5318534F0A429F9E435F0FAE530858E
:10045C0035F0A429F9E5F03AFAE433FBE5328534BA
:10046C00F0A42AFAE5F03BFBE5318535F0A42AFA35
:10047C00E5F03BFBE5308536F0A42AFAE5F03BFBD2
:10048C00E5338534F0A42BFBE5328535F0A42BFB4A
:10049C00E5318536F0A42BFBE5308537F0A42BFB3A
:1004AC008B338A3289318830D003D002D001D0000E
:1004BC00D0D0D0F0D0E022C0E0C0D0C000C001C08D
:1004CC0002C003C0047C20E4F8F9FAFBC3E5303326
:1004DC00F530E53133F531E53233F532E53333F5CB
:1004EC0033E833F8E933F9EA33FAEB33FBC3E89535
:1004FC0034E99535EA9536EB95374013E89534F8A1
:10050C00E99535F9EA9536FAEB9537FB433001DC82
:10051C00BBD004D003D002D001D000D0D0D0E02288
:10052C0075AC0075AD0075B30075B40075B1007590
:10053C00B20043B30253B4FD53E1FD43B21053B2C6
:10054C00EF53E8F043E8052253E1FD53E8F043E8AC
:10055C000775F60043F68043E101C2EFD2EE30EFAF
:10056C00FDE5C3C4C0E0540FF9D0E054F045C2F827
:10057C00883089317532007533007534027535C693
:10058C007536007537001204367534FF75350F75E6
:10059C0036007537001204C37534A475356A753688
:1005AC00007537001203A27534647535007536007A
:1005BC00753700120436A830A931AD32AE33C00005
:1005CC00C001C005C00653E1FD53E8F043E80575D2
:1005DC00F60043F620C2EFD2EE30EFFDE5C3C4C007
:1005EC00E0540FFCD0E054F045C2FB8B308C3175DD
:1005FC0032007533007534E8753503753600753780
:10060C000012043675346475350075360075370084
:10061C001204C37534EF7535447536007537001206
:10062C00043675342975350075360075370012049B
:10063C00C3D006D005D001D000883489358D368ED4
:10064C00371203812253E1FD53E8F043E80775F6B6
:10065C000043F68043E101C2EFD2EE30EFFDE5C37B
:10066C00C4C0E0540FF9D0E054F045C2F88830898A
:10067C00317532007533007534027535C675360028
:10068C007537001204367534FF75350F75360075E5
:10069C0037001204C37534A475356A753600753786
:1006AC00001203A275346475350075360075370079
:1006BC00120436A830A931AD32AE33C000C001C02F
:1006CC0005C00653E1FD53E8F043E80575F6004319
:1006DC00F620C2EFD2EE30EFFDE5C3C4C0E0540FFC
:1006EC00FCD0E054F045C2FB8B308C317532007578
:1006FC0033007534E8753503753600753700120410
:10070C00367534647535007536007537001204C3C0
:10071C007534EF753544753600753700120436752F
:10072C0034297535007536007537001204C3D006B0
:10073C00D005D001D000883489358D368E37120320
:0E074C0081853034853135853236853337224C
:10075A00754C00753E0022E53EC0E0740114120299
:10076A004ED0E0C083C082C0E090012D120241D079
:10077A00E0D082D083C0E074011412024CD0E0C0F1
:10078A0083C082C0E090003E120241D0E0D082D005
:10079A0083120DF4B4000D754C00120AEBA200404E
:1007AA00B8753E01C0E074011412024ED0E0C08355
:1007BA00C082C0E090013E120241D0E0D082D083D4
:1007CA00C0E074011412024CD0E0C083C082C0E0C1
:1007DA0090003E120241D0E0D082D083120DF4B4D0
:1007EA000110754C64754900E541C3954A50B575C9
:1007FA003E02C0E074011412024ED0E0C083C082EF
:10080A00C0E090014F120241D0E0D082D08312059D
:10081A00541202BCC083C082C0E090003E12024162
:10082A00D0E0D082D083C0E074011412024CD0E030
:10083A00C000A83C120253D000C000A83B120253C9
:10084A00D000C000A83A120253D000C000A8391242
:10085A000253D000C000A838120253D000120DF47F
:10086A00754C14C205753041753100753200753307
:10087A000075341075352775360075370012043641
:10088A00C030C031C032C033120651D033D032D05A
:10089A0031D03012042C2005030207FC753E03B246
:1008AA0095C295C0E074011412024ED0E0C083C014
:1008BA0082C0E0900160120241D0E0D082D083C0B1
:1008CA00E074011412024CD0E0C083C082C0E090F0
:1008DA00003E120241D0E0D082D083120DF4B4035C
:1008EA0010754C64754900E545C3954A5003753E39
:1008FA0004C0E074011412024ED0E0C083C082C06A
:10090A00E0900171120241D0E0D082D083C0E0743D
:10091A00011412024CD0E0C083C082C0E090003EB5
:10092A00120241D0E0D082D083120DF4B4041175C2
:10093A004C14E543C395495003753E05B295C295DB
:10094A00C0E074011412024ED0E0C083C082C0E03D
:10095A00900182120241D0E0D082D083C0E07401BB
:10096A001412024CD0E0C083C082C0E090003E1254
:10097A000241D0E0D082D083120DF47405B4052E62
:10098A00754C00E54AC3943C5000C0E0740114124F
:10099A00024ED0E0C083C082C0E090011E12024124
:1009AA00D0E0D082D083753E00020B99B29502073F
:1009BA0063754C00C0E074011412024ED0E0C0838B
:1009CA00C082C0E0900124120241D0E0D082D083DC
:0309DA00020B9974
:1009DD0075AC0075AD0075B30075B40075B10075DB
:1009ED00B200438E1043878075985253C4DF5389EC
:1009FD000F438920C28C438E085389F043890143EC
:100A0D00B38053B47F75F60043F60143E101120A3A
:100A1D0053D2AF22C28CC28D758CBF758A28D28CF1
:100A2D00308DFD22120A21DAFB22C000A83A1202F3
:100A3D0053D000C000A839120253D000C000A8380E
:100A4D00120253D0002275C80075CDBF75CC287524
:100A5D00C98075CBBF75CA28E4F547F548754900BF
:100A6D00C206439B80D2CA22C2CFC0E0C0D0C034E0
:100A7D00C035C036C037C030C031C032C033054775
:100A8D00E54770020548C375304C7531007532006D
:100A9D0075330075340A75350075360075370012DB
:100AAD000436C3E53095475005C3E5319548B392FB
:100ABD0090E547B4E813E548B4030EE4F547F5486F
:100ACD00D206E5492401D4F549D033D032D031D006
:100ADD0030D037D036D035D034D0D0D0E032C0E0A1
:100AED0053E8F043E800C2EFD2EE30EFFDD204D26E
:100AFD0003D202D201D200C3E5C394B04005C204B3
:100B0D00D0E022C3E5C394904005C203D0E022C3D8
:100B1D00E5C394704005C202D0E022C3E5C39450F2
:100B2D004005C201D0E022C3E5C394304005C200A8
:100B3D00D0E022C3E5C394104003D0E022D0E022E0
:100B4D0075817F12052C1209DD12020E120269C089
:100B5D00E074011412024ED0E0C083C082C0E09058
:100B6D00002E120241D0E0D082D083C0E074011477
:100B7D0012024CD0E0C083C082C0E090003E120251
:100B8D0041D0E0D082D0837AFA120A317A32120A39
:100B9D0031300604C206B2957A32120A31020BAD1B
:100BAD00E53DB4004CC0E074011412024ED0E0C01B
:100BBD0083C082C0E090004F120241D0E0D082D0BD
:100BCD0083C0E074011412024CD0E0C083C082C017
:100BDD00E0900060120241D0E0D082D0837AFA1208
:100BED000A31120DF4120DFF120EC2020B99020CF6
:100BFD0083B401FAC0E074011412024ED0E0C08338
:100C0D00C082C0E0900071120241D0E0D082D0834A
:100C1D00C0E074011412024CD0E0C083C082C0E069
:100C2D00900082120241D0E0D082D083C005AD3059
:100C3D00853F30753100753200753300C0E0740B9F
:100C4D001412024CD0E01202BC120A378D30D005BE
:100C5D00120DF4C003C004C0057B3C7C78AD3F127F
:100C6D000E32120E7A8D3FD005D004D003120EC273
:100C7D00120DFF020B99B40279C0E0740114120237
:100C8D004ED0E0C083C082C0E0900093120241D0EC
:100C9D00E0D082D083C0E074011412024CD0E0C0C9
:100CAD0083C082C0E09000A4120241D0E0D082D077
:100CBD0083C0E0740B1412024CD0E0C005AD30853A
:100CCD0041301202BC120A378D30D005120DF4C01E
:100CDD0003C004C0057B967CC8AD41120E32120EC6
:100CED007A8D41D005D004D003120EC2120DFF0231
:100CFD000B99B40379C0E074011412024ED0E0C018
:100D0D0083C082C0E09000B5120241D0E0D082D005
:100D1D0083C0E074011412024CD0E0C083C082C0C5
:100D2D00E09000C6120241D0E0D082D083C0E074C2
:100D3D000B1412024CD0E0C005AD308543301202C9
:100D4D00BC120A378D30D005120DF4C003C004C09B
:100D5D00057B2D7C4BAD43120E32120E7A8D43D096
:100D6D0005D004D003120EC2120DFF020B99C0E084
:100D7D0074011412024ED0E0C083C082C0E0900016
:100D8D00D7120241D0E0D082D083C0E0740114129A
:100D9D00024CD0E0C083C082C0E09000E812024156
:100DAD00D0E0D082D083C0E0740B1412024CD0E09E
:100DBD00C005AD308545301202BC120A378D30D0DA
:100DCD0005120DF4C003C004C0057BD97CFFAD45F1
:100DDD00120E32120E7A8D45D005D004D003120EAC
:100DED00C2120DFF020B99120AEBA204500122024E
:100DFD000279120AEBA203500122853D30753100B4
:100E0D00753200753300753404753500753600750F
:100E1D0037001203FCD3200507E53D3400F53D22D4
:100E2D00C3753D0022120AEBA2025001228C3075CF
:100E3D0031007532007533008D347535007536000F
:100E4D007537001203E0D3300505ED3400FD22C3E4
:100E5D00C0E0740B1412024CD0E0C083C082C0E01D
:100E6D009000F9120241D0E0D082D08322120AEB19
:100E7D00A2015001228B307531007532007533009F
:100E8D008D347535007536007537001203C4D330B7
:100E9D000505ED9400FD22C3C0E0740B1412024C45
:100EAD00D0E0C083C082C0E0900103120241D0E0C7
:100EBD00D082D08322120AEBA200500122020763D6
:00000001FF
