:030000000208A44F
:10002B000207CC20206865726520776520676F21F9
:10003B0020200020202020202020202020202020D5
:10004B002020200053657420796F75722076616CC7
:10005B0075657320005072657373206E657874201C
:10006B0020202020200053656C65637420736F6122
:10007B006B2074696D6500536F616B2074696D65DE
:10008B003A2020202020200053656C656374207378
:10009B006F616B2074656D7000536F616B207465BD
:1000AB006D703A2020202020200053656C6563740E
:1000BB00207265666C2074696D65005265666C20F4
:1000CB0074696D653A2020202020200053656C65F3
:1000DB006374207265666C2074656D700052656682
:1000EB006C2074656D703A202020202020006D61FB
:1000FB0078212020202020006D696E2120202020D7
:10010B00200068656C6C6F20706C656173650064B2
:10011B00696500646F6E65210073746F7070656440
:10012B0021004F76656E2053746174652030212059
:10013B002020004F76656E20537461746520312149
:10014B00202020004F76656E205374617465203239
:10015B0021202020004F76656E205374617465203A
:10016B003321202020004F76656E20537461746517
:10017B00203421202020004F76656E20537461744B
:10018B00652035212020200053657474696E6773D8
:10019B00205265736574212000737461746531207E
:0A01AB00202020202020202020002A
:1001B500C000788500D8FDD00022C000C001792894
:1001C5007868D8FED9FADAF6D001D00022D2941296
:1001D50001B5C29422A2E79283A2E69282A2E59299
:1001E50081A2E492801201D21201B5A2E39283A208
:1001F500E29282A2E19281A2E092801201D222D201
:10020500930201DAC2930201DAC294C0027A28127B
:1002150001BFD00274331202097433120209743219
:100225001202097428120209740C120209740112CF
:100235000209C0027A021201BFD00222E4936006CD
:10024500120204A380F62244404480020209C0E061
:10025500E8C4540F4430120204E8540F443012022B
:0402650004D0E022BF
:10026900753D00753F3C75419675432D7545D922FD
:10027900C0E074011412024ED0E0C083C082C0E015
:10028900900193120241D0E0D082D083C0E0740182
:100299001412024CD0E0C083C082C0E090003E122C
:1002A9000241D0E0D082D0837AFA1202691207881B
:0302B9000208ED4B
:1002BC00C0E0C0D0C000C001C002E4F538F539F58B
:1002CC003AF53BF53C7A20E533A2E779047830E641
:1002DC0033F608D9FA79057838E636D4F608D9F920
:1002EC00DAE5D002D001D000D0D0D0E022C0E0C0FE
:1002FC00D0C000C001C002E4F538F539F53AF53B41
:10030C00F53C7A20E533A2E779047830E633F60839
:10031C00D9FA79057838C0D0E6243320E70224D006
:10032C0020E30224FDD0D033F608D9EADAD6D00285
:10033C00D001D000D0D0D0E022C0E0C0D0C000C0EE
:10034C0001C0027A207905C3783CE613C0D030E7AF
:10035C000224D030E30224FDF618D0D0D9EC790475
:10036C007833E613F618D9FADADBD002D001D000D4
:10037C00D0D0D0E022C0E0C0D0E5302534F530E557
:10038C00313535F531E5323536F532E5333537F57E
:10039C0033D0D0D0E022C0E0C0D0C3E5309534F5E6
:1003AC0030E5319535F531E5329536F532E5339555
:1003BC0037F533D0D0D0E022C0E0C0D0C3E53095C3
:1003CC0034E5319535E5329536E53395379205D0E0
:1003DC00D0D0E022C0E0C0D0C3E5349530E53595EF
:1003EC0031E5369532E53795339205D0D0D0E02201
:1003FC00C0E0C0D0C205C3E53495307014E5359526
:10040C0031700EE53695327008E53795337002D2AF
:10041C0005D0D0D0E0221203FC2005030203E02219
:10042C001203FC2005030203C422C0E0C0F0C0D0BC
:10043C00C000C001C002C003E5308534F0A4F8A9A7
:10044C00F0E5318534F0A429F9E435F0FAE530858E
:10045C0035F0A429F9E5F03AFAE433FBE5328534BA
:10046C00F0A42AFAE5F03BFBE5318535F0A42AFA35
:10047C00E5F03BFBE5308536F0A42AFAE5F03BFBD2
:10048C00E5338534F0A42BFBE5328535F0A42BFB4A
:10049C00E5318536F0A42BFBE5308537F0A42BFB3A
:1004AC008B338A3289318830D003D002D001D0000E
:1004BC00D0D0D0F0D0E022C0E0C0D0C000C001C08D
:1004CC0002C003C0047C20E4F8F9FAFBC3E5303326
:1004DC00F530E53133F531E53233F532E53333F5CB
:1004EC0033E833F8E933F9EA33FAEB33FBC3E89535
:1004FC0034E99535EA9536EB95374013E89534F8A1
:10050C00E99535F9EA9536FAEB9537FB433001DC82
:10051C00BBD004D003D002D001D000D0D0D0E02288
:10052C00754C00753E0022E53E120B48B400107568
:10053C004C00120842A20040F0753E010208ED1278
:10054C000B48B40113754C64754900E541C3954AD9
:10055C005003753E020208ED120B48B40214754CA0
:10056C0014E53FC395495003753E03B295C29502FD
:10057C0008ED120B48B40313754C64754900E5453E
:10058C00C3954A5003753E040208ED120B48B4049F
:10059C0014754C14E543C395495003753E05B2954B
:1005AC00C2950208ED120B487405B40531754C0068
:1005BC00E54AC3943C5000C0E074011412024ED0C2
:1005CC00E0C083C082C0E090011E120241D0E0D096
:1005DC0082D083753E000208EDB2950208ED02054B
:1005EC0035754C00C0E074011412024ED0E0C0838B
:1005FC00C082C0E0900124120241D0E0D082D083AE
:03060C000208EDF4
:10060F0075AC0075AD0075B30075B40075B10075AC
:10061F00B20043B30253B4FD53E1FD43B21053B2E2
:10062F00EF53E8F043E8052253E1FD53E8F043E8C8
:10063F000775F60043F68043E101C2EFD2EE30EFCB
:10064F00FDE5C3C4C0E0540FF9D0E054F045C2F843
:10065F00883089317532007533007534027535C6AF
:10066F007536007537001204367534FF75350F7502
:10067F0036007537001204C37534A475356A7536A4
:10068F00007537001203A275346475350075360096
:10069F00753700120436A830A931AD32AE33C00021
:1006AF00C001C005C00653E1FD53E8F043E80575EE
:1006BF00F60043F620C2EFD2EE30EFFDE5C3C4C023
:1006CF00E0540FFCD0E054F045C2FB8B308C3175F9
:1006DF0032007533007534E875350375360075379C
:1006EF0000120436753464753500753600753700A1
:1006FF001204C37534EF7535447536007537001223
:10070F0004367534297535007536007537001204B7
:10071F00C3D006D005D001D000883489358D368EF0
:05072F003712038122D6
:1007340075AC0075AD0075B30075B40075B1007586
:10074400B200438E1043878075985253C4DF538997
:100754000F438920C28C438E085389F04389014397
:10076400B38053B47F75F60043F60143E1011207E9
:10077400AAD2AF22C28CC28D758CBF758A28D28C46
:10078400308DFD22120778DAFB22C000A83A12024B
:1007940053D000C000A839120253D000C000A838BA
:1007A400120253D0002275C80075CDBF75CC2875D0
:1007B400C98075CBBF75CA28E4F547F5487549006B
:1007C400C206439B80D2CA22C2CFC0E0C0D0C0348C
:1007D400C035C036C037C030C031C032C033054721
:1007E400E54770020548C375304C75310075320019
:1007F40075330075340A7535007536007537001287
:100804000436C3E53095475005C3E5319548B392A6
:1008140090E547B4E813E548B4030EE4F547F5481A
:10082400D206E5492401D4F549D033D032D031D0B1
:1008340030D037D036D035D034D0D0D0E032C0E04C
:1008440053E8F043E800C2EFD2EE30EFFDD204D219
:1008540003D202D201D200C3E5C394B04005C2045E
:10086400D0E022C3E5C394904005C203D0E022C384
:10087400E5C394704005C202D0E022C3E5C394509E
:100884004005C201D0E022C3E5C394304005C20054
:10089400D0E022C3E5C394104003D0E022D0E0228C
:1008A40075817F12073412020E120269C0E07401CE
:1008B4001412024ED0E0C083C082C0E090002E1219
:1008C4000241D0E0D082D083C0E074011412024C03
:1008D400D0E0C083C082C0E090003E120241D0E06C
:1008E400D082D0837AFA1207887A321207883006C7
:1008F40004C206B2957A32120788020901E53DB4B2
:10090400004CC0E074011412024ED0E0C083C082D7
:10091400C0E090004F120241D0E0D082D083C0E00A
:1009240074011412024CD0E0C083C082C0E0900075
:1009340060120241D0E0D082D0837AFA1207881282
:100944000B48120B53120C160208ED0209D7B4011E
:10095400FAC0E074011412024ED0E0C083C082C019
:10096400E0900071120241D0E0D082D083C0E074E4
:10097400011412024CD0E0C083C082C0E090008217
:10098400120241D0E0D082D083C005AD30853F3023
:10099400753100753200753300C0E0740B14120217
:1009A4004CD0E01202BC12078E8D30D005120B48D9
:1009B400C003C004C0057B3C7C78AD3F120B86129B
:1009C4000BCE8D3FD005D004D003120C16120B535E
:1009D4000208EDB40279C0E074011412024ED0E0B2
:1009E400C083C082C0E0900093120241D0E0D08264
:1009F400D083C0E074011412024CD0E0C083C082E2
:100A0400C0E09000A4120241D0E0D082D083C0E0C4
:100A1400740B1412024CD0E0C005AD308541301285
:100A240002BC12078E8D30D005120B48C003C004DF
:100A3400C0057B967CC8AD41120B86120BCE8D414E
:100A4400D005D004D003120C16120B530208EDB4D7
:100A54000379C0E074011412024ED0E0C083C08256
:100A6400C0E09000B5120241D0E0D082D083C0E053
:100A740074011412024CD0E0C083C082C0E0900024
:100A8400C6120241D0E0D082D083C0E0740B1412AD
:100A9400024CD0E0C005AD308543301202BC1207D1
:100AA4008E8D30D005120B48C003C004C0057B2DC9
:100AB4007C4BAD43120B86120BCE8D43D005D00474
:100AC400D003120C16120B530208EDC0E07401148B
:100AD40012024ED0E0C083C082C0E09000D7120260
:100AE40041D0E0D082D083C0E074011412024CD013
:100AF400E0C083C082C0E09000E8120241D0E0D0A0
:100B040082D083C0E0740B1412024CD0E0C005AD57
:100B1400308545301202BC12078E8D30D005120B81
:100B240048C003C004C0057BD97CFFAD45120B86C9
:100B3400120BCE8D45D005D004D003120C16120B27
:100B4400530208ED120842A2045001220202791253
:100B54000842A203500122853D30753100753200F0
:100B64007533007534047535007536007537001219
:100B740003FCD3200507E53D3400F53D22C3753D54
:100B84000022120842A2025001228C3075310075F5
:100B940032007533008D34753500753600753700B5
:100BA4001203E0D3300505ED3400FD22C3C0E07428
:100BB4000B1412024CD0E0C083C082C0E09000F954
:100BC400120241D0E0D082D08322120842A2015006
:100BD40001228B307531007532007533008D347508
:100BE40035007536007537001203C4D3300505EDA2
:100BF4009400FD22C3C0E0740B1412024CD0E0C078
:100C040083C082C0E0900103120241D0E0D082D0C0
:0D0C14008322120842A20050012202053581
:00000001FF
