:030000000207E212
:10002B0002075B20206865726520776520676F216A
:10003B0020200020202020202020202020202020D5
:10004B002020200053657420796F75722076616CC7
:10005B0075657320005072657373206E657874201C
:10006B0020202020200053656C65637420736F6122
:10007B006B2074696D6500536F616B2074696D65DE
:10008B003A2020202020200053656C656374207378
:10009B006F616B2074656D7000536F616B207465BD
:1000AB006D703A2020202020200053656C6563740E
:1000BB00207265666C2074696D65005265666C20F4
:1000CB0074696D653A2020202020200053656C65F3
:1000DB006374207265666C2074656D700052656682
:1000EB006C2074656D703A202020202020006D61FB
:1000FB0078212020202020006D696E2120202020D7
:10010B00200068656C6C6F20706C656173650064B2
:10011B00696500646F6E65210073746F7070656440
:10012B00210053657474696E67732052657365742F
:10013B002120007374617465312020202020202041
:04014B002020200050
:10014F00C000788500D8FDD00022C000C0017928FA
:10015F007868D8FED9FADAF6D001D00022D29412FC
:10016F00014FC29422A2E79283A2E69282A2E59265
:10017F0081A2E4928012016C12014FA2E39283A23A
:10018F00E29282A2E19281A2E0928012016C22D2CD
:10019F0093020174C293020174C294C0027A2812AE
:1001AF000159D00274331201A374331201A37432B4
:1001BF001201A374281201A3740C1201A37401126B
:1001CF0001A3C0027A02120159D00222E493600601
:1001DF0012019EA380F622444044800201A3C0E096
:1001EF00E8C4540F443012019EE8540F44301201FA
:0401FF009ED0E0228C
:10020300753D00753F3C75419675432D7545D92263
:10021300C0E07401141201E8D0E0C083C082C0E0E2
:1002230090012D1201DBD0E0D082D083C0E07401B5
:10023300141201E6D0E0C083C082C0E090003E12F9
:1002430001DBD0E0D082D0837AFA120203120717BF
:0302530002082B73
:10025600C0E0C0D0C000C001C002E4F538F539F5F1
:100266003AF53BF53C7A20E533A2E779047830E6A7
:1002760033F608D9FA79057838E636D4F608D9F986
:10028600DAE5D002D001D000D0D0D0E022C0E0C064
:10029600D0C000C001C002E4F538F539F53AF53BA7
:1002A600F53C7A20E533A2E779047830E633F608A0
:1002B600D9FA79057838C0D0E6243320E70224D06D
:1002C60020E30224FDD0D033F608D9EADAD6D002EC
:1002D600D001D000D0D0D0E022C0E0C0D0C000C055
:1002E60001C0027A207905C3783CE613C0D030E716
:1002F6000224D030E30224FDF618D0D0D9EC7904DC
:100306007833E613F618D9FADADBD002D001D0003A
:10031600D0D0D0E022C0E0C0D0E5302534F530E5BD
:10032600313535F531E5323536F532E5333537F5E4
:1003360033D0D0D0E022C0E0C0D0C3E5309534F54C
:1003460030E5319535F531E5329536F532E53395BB
:1003560037F533D0D0D0E022C0E0C0D0C3E5309529
:1003660034E5319535E5329536E53395379205D046
:10037600D0D0E022C0E0C0D0C3E5349530E5359555
:1003860031E5369532E53795339205D0D0D0E02267
:10039600C0E0C0D0C205C3E53495307014E535958C
:1003A60031700EE53695327008E53795337002D216
:1003B60005D0D0D0E02212039620050302037A224C
:1003C60012039620050302035E22C0E0C0F0C0D0EF
:1003D600C000C001C002C003E5308534F0A4F8A90E
:1003E600F0E5318534F0A429F9E435F0FAE53085F5
:1003F60035F0A429F9E5F03AFAE433FBE532853421
:10040600F0A42AFAE5F03BFBE5318535F0A42AFA9B
:10041600E5F03BFBE5308536F0A42AFAE5F03BFB38
:10042600E5338534F0A42BFBE5328535F0A42BFBB0
:10043600E5318536F0A42BFBE5308537F0A42BFBA0
:100446008B338A3289318830D003D002D001D00074
:10045600D0D0D0F0D0E022C0E0C0D0C000C001C0F3
:1004660002C003C0047C20E4F8F9FAFBC3E530338C
:10047600F530E53133F531E53233F532E53333F531
:1004860033E833F8E933F9EA33FAEB33FBC3E8959B
:1004960034E99535EA9536EB95374013E89534F807
:1004A600E99535F9EA9536FAEB9537FB433001DCE9
:1004B600BBD004D003D002D001D000D0D0D0E022EF
:1004C600754C00753E0022E53EB40010754C0012D6
:1004D6000790A20040F3753E0102082B120A86B46B
:1004E6000113754C64754900E541C3954A5003757F
:1004F6003E0202082B120A86B40214754C14E53F1C
:10050600C395495003753E03B295C29502082B1256
:100516000A86B40313754C64754900E545C3954ACC
:100526005003753E0402082B120A86B40414754C57
:1005360014E543C395495003753E05B295C295022D
:10054600082B120A86B40581754C00743CC3954A83
:10055600501F753E00C0E07401141201E8D0E0C0DF
:1005660083C082C0E090011E1201DBD0E0D082D0B1
:1005760083B29502082B754C00C0E0740114120179
:10058600E8D0E0C083C082C0E09001241201DBD035
:08059600E0D082D08302082BA3
:10059E0075AC0075AD0075B30075B40075B100751E
:1005AE00B20043B30253B4FD53E1FD43B21053B254
:1005BE00EF53E8F043E8052253E1FD53E8F043E83A
:1005CE000775F60043F68043E101C2EFD2EE30EF3D
:1005DE00FDE5C3C4C0E0540FF9D0E054F045C2F8B5
:1005EE00883089317532007533007534027535C621
:1005FE007536007537001203D07534FF75350F75DB
:10060E00360075370012045D7534A475356A75367B
:10061E000075370012033C7534647535007536006D
:10062E007537001203D0A830A931AD32AE33C000F9
:10063E00C001C005C00653E1FD53E8F043E805755F
:10064E00F60043F620C2EFD2EE30EFFDE5C3C4C094
:10065E00E0540FFCD0E054F045C2FB8B308C31756A
:10066E0032007533007534E875350375360075370D
:10067E00001203D075346475350075360075370079
:10068E0012045D7534EF75354475360075370012FA
:10069E0003D0753429753500753600753700120490
:1006AE005DD006D005D001D000883489358D368EC8
:0506BE003712031B22AE
:1006C30075AC0075AD0075B30075B40075B10075F8
:1006D300B200438E1043878075985253C4DF538909
:1006E3000F438920C28C438E085389F04389014309
:1006F300B38053B47F75F60043F60143E10112075B
:1007030039D2AF22C28CC28D758CBF758A28D28C28
:10071300308DFD22120707DAFB22C000A83A12012E
:10072300EDD000C000A8391201EDD000C000A838F8
:100733001201EDD0002275C80075CDBF75CC2875A8
:10074300C98075CBBF75CA28E4F547F548754900DC
:10075300C206439B80D2CA22C2CFC0E0C0D00547A5
:10076300E54770020548054BC3E54C954BB39290A2
:10077300E547B4E813E548B4030EE4F547F548D27A
:1007830006E5492401D4F549D0D0D0E03253E8F04E
:1007930043E800C2EFD2EE30EFFDD204D203D2021F
:1007A300D201D200C3E5C394B04003C20422C3E51F
:1007B300C394904003C20322C3E5C394704003C2B1
:1007C3000222C3E5C394504003C20122C3E5C3948C
:1007D300304003C20022C3E5C394104001222275B6
:1007E300817F1206C31201A8120203C0E074011430
:1007F3001201E8D0E0C083C082C0E090002E120155
:10080300DBD0E0D082D083C0E07401141201E6D0C3
:10081300E0C083C082C0E090003E1201DBD0E0D094
:1008230082D0837AFA1207177A3212071730060436
:10083300C206B2957A3212071702083FE53DB400AB
:100843004CC0E07401141201E8D0E0C083C082C040
:10085300E090004F1201DBD0E0D082D083C0E0747F
:1008630001141201E6D0E0C083C082C0E0900060B2
:100873001201DBD0E0D082D0837AFA120717120A72
:1008830086120A91120B5402082B020915B401FABD
:10089300C0E07401141201E8D0E0C083C082C0E05C
:1008A3009000711201DBD0E0D082D083C0E07401EC
:1008B300141201E6D0E0C083C082C0E0900082122F
:1008C30001DBD0E0D082D083C005AD30853F3075E9
:1008D3003100753200753300C0E0740B141201E669
:1008E300D0E012025612071D8D30D005120A86C0C1
:1008F30003C004C0057B3C7C78AD3F120AC4120BD5
:100903000C8D3FD005D004D003120B54120A910270
:10091300082BB40279C0E07401141201E8D0E0C0DE
:1009230083C082C0E09000931201DBD0E0D082D07C
:1009330083C0E07401141201E6D0E0C083C082C01A
:10094300E09000A41201DBD0E0D082D083C0E07439
:100953000B141201E6D0E0C005AD30854130120220
:100963005612071D8D30D005120A86C003C004C07D
:10097300057B967CC8AD41120AC4120B0C8D41D085
:1009830005D004D003120B54120A9102082BB403AE
:1009930079C0E07401141201E8D0E0C083C082C0C2
:1009A300E09000B51201DBD0E0D082D083C0E074C8
:1009B30001141201E6D0E0C083C082C0E09000C6FB
:1009C3001201DBD0E0D082D083C0E0740B1412019B
:1009D300E6D0E0C005AD3085433012025612071D44
:1009E3008D30D005120A86C003C004C0057B2D7C60
:1009F3004BAD43120AC4120B0C8D43D005D004D067
:100A030003120B54120A9102082BC0E07401141252
:100A130001E8D0E0C083C082C0E09000D71201DBC0
:100A2300D0E0D082D083C0E07401141201E6D0E09C
:100A3300C083C082C0E09000E81201DBD0E0D08226
:100A4300D083C0E0740B141201E6D0E0C005AD30D2
:100A530085453012025612071D8D30D005120A86C5
:100A6300C003C004C0057BD97CFFAD45120AC41284
:100A73000B0C8D45D005D004D003120B54120A91F0
:100A830002082B120790A20450012202021312073C
:100A930090A203500122853D3075310075320075F7
:100AA300330075340475350075360075370012034D
:100AB30096D3200507E53D3400F53D22C3753D007F
:100AC30022120790A2025001228C30753100753238
:100AD300007533008D347535007536007537001297
:100AE300037AD3300505ED3400FD22C3C0E0740B57
:100AF300141201E6D0E0C083C082C0E09000F91276
:100B030001DBD0E0D082D08322120790A2015001F2
:100B1300228B307531007532007533008D34753595
:100B23000075360075370012035ED3300505ED946A
:100B330000FD22C3C0E0740B141201E6D0E0C083B1
:100B4300C082C0E09001031201DBD0E0D082D083E9
:0C0B530022120790A2005001220204CFE1
:00000001FF
