:0300000002083EB5
:10002B0002076620206865726520776520676F215F
:10003B0020200020202020202020202020202020D5
:10004B002020200053657420796F75722076616CC7
:10005B0075657320005072657373206E657874201C
:10006B0020202020200053656C65637420736F6122
:10007B006B2074696D6500536F616B2074696D65DE
:10008B003A2020202020200053656C656374207378
:10009B006F616B2074656D7000536F616B207465BD
:1000AB006D703A2020202020200053656C6563740E
:1000BB00207265666C2074696D65005265666C20F4
:1000CB0074696D653A2020202020200053656C65F3
:1000DB006374207265666C2074656D700052656682
:1000EB006C2074656D703A202020202020006D61FB
:1000FB0078212020202020006D696E2120202020D7
:10010B00200068656C6C6F20706C656173650064B2
:10011B00696500646F6E65210073746F7070656440
:10012B00210053657474696E67732052657365742F
:10013B002120007374617465312020202020202041
:04014B002020200050
:10014F00C000788500D8FDD00022C000C0017928FA
:10015F007868D8FED9FADAF6D001D00022D29412FC
:10016F00014FC29422A2E79283A2E69282A2E59265
:10017F0081A2E4928012016C12014FA2E39283A23A
:10018F00E29282A2E19281A2E0928012016C22D2CD
:10019F0093020174C293020174C294C0027A2812AE
:1001AF000159D00274331201A374331201A37432B4
:1001BF001201A374281201A3740C1201A37401126B
:1001CF0001A3C0027A02120159D00222E493600601
:1001DF0012019EA380F622444044800201A3C0E096
:1001EF00E8C4540F443012019EE8540F44301201FA
:0401FF009ED0E0228C
:10020300753D00753F3C75419675432D7545D92263
:10021300C0E07401141201E8D0E0C083C082C0E0E2
:1002230090012D1201DBD0E0D082D083C0E07401B5
:10023300141201E6D0E0C083C082C0E090003E12F9
:1002430001DBD0E0D082D0837AFA120203120722B4
:0302530002088717
:10025600C0E0C0D0C000C001C002E4F538F539F5F1
:100266003AF53BF53C7A20E533A2E779047830E6A7
:1002760033F608D9FA79057838E636D4F608D9F986
:10028600DAE5D002D001D000D0D0D0E022C0E0C064
:10029600D0C000C001C002E4F538F539F53AF53BA7
:1002A600F53C7A20E533A2E779047830E633F608A0
:1002B600D9FA79057838C0D0E6243320E70224D06D
:1002C60020E30224FDD0D033F608D9EADAD6D002EC
:1002D600D001D000D0D0D0E022C0E0C0D0C000C055
:1002E60001C0027A207905C3783CE613C0D030E716
:1002F6000224D030E30224FDF618D0D0D9EC7904DC
:100306007833E613F618D9FADADBD002D001D0003A
:10031600D0D0D0E022C0E0C0D0E5302534F530E5BD
:10032600313535F531E5323536F532E5333537F5E4
:1003360033D0D0D0E022C0E0C0D0C3E5309534F54C
:1003460030E5319535F531E5329536F532E53395BB
:1003560037F533D0D0D0E022C0E0C0D0C3E5309529
:1003660034E5319535E5329536E53395379205D046
:10037600D0D0E022C0E0C0D0C3E5349530E5359555
:1003860031E5369532E53795339205D0D0D0E02267
:10039600C0E0C0D0C205C3E53495307014E535958C
:1003A60031700EE53695327008E53795337002D216
:1003B60005D0D0D0E02212039620050302037A224C
:1003C60012039620050302035E22C0E0C0F0C0D0EF
:1003D600C000C001C002C003E5308534F0A4F8A90E
:1003E600F0E5318534F0A429F9E435F0FAE53085F5
:1003F60035F0A429F9E5F03AFAE433FBE532853421
:10040600F0A42AFAE5F03BFBE5318535F0A42AFA9B
:10041600E5F03BFBE5308536F0A42AFAE5F03BFB38
:10042600E5338534F0A42BFBE5328535F0A42BFBB0
:10043600E5318536F0A42BFBE5308537F0A42BFBA0
:100446008B338A3289318830D003D002D001D00074
:10045600D0D0D0F0D0E022C0E0C0D0C000C001C0F3
:1004660002C003C0047C20E4F8F9FAFBC3E530338C
:10047600F530E53133F531E53233F532E53333F531
:1004860033E833F8E933F9EA33FAEB33FBC3E8959B
:1004960034E99535EA9536EB95374013E89534F807
:1004A600E99535F9EA9536FAEB9537FB433001DCE9
:1004B600BBD004D003D002D001D000D0D0D0E022EF
:1004C600754C00753E0022E53E120AE2B400107536
:1004D6004C001207DCA20040F0753E0102088712AC
:1004E6000AE2B40113754C64754900E541C3954AA7
:1004F6005003753E02020887120AE2B40214754CD4
:1005060014E53FC395495003753E03B295C2950263
:100516000887120AE2B40313754C64754900E54571
:10052600C3954A5003753E04020887120AE2B404D2
:1005360014754C14E543C395495003753E05B295B1
:10054600C295020887120AE27405B40531754C009B
:10055600E54AC3943C5000C0E07401141201E8D08F
:10056600E0C083C082C0E090011E1201DBD0E0D063
:1005760082D083753E00020887B29502088702047E
:10058600CF754C00C0E07401141201E8D0E0C083BE
:10059600C082C0E09001241201DBD0E0D082D0837B
:0305A600020887C1
:1005A90075AC0075AD0075B30075B40075B1007513
:1005B900B20043B30253B4FD53E1FD43B21053B249
:1005C900EF53E8F043E8052253E1FD53E8F043E82F
:1005D9000775F60043F68043E101C2EFD2EE30EF32
:1005E900FDE5C3C4C0E0540FF9D0E054F045C2F8AA
:1005F900883089317532007533007534027535C616
:100609007536007537001203D07534FF75350F75CF
:10061900360075370012045D7534A475356A753670
:100629000075370012033C75346475350075360062
:100639007537001203D0A830A931AD32AE33C000EE
:10064900C001C005C00653E1FD53E8F043E8057554
:10065900F60043F620C2EFD2EE30EFFDE5C3C4C089
:10066900E0540FFCD0E054F045C2FB8B308C31755F
:1006790032007533007534E8753503753600753702
:10068900001203D07534647535007536007537006E
:1006990012045D7534EF75354475360075370012EF
:1006A90003D0753429753500753600753700120485
:1006B9005DD006D005D001D000883489358D368EBD
:0506C9003712031B22A3
:1006CE0075AC0075AD0075B30075B40075B10075ED
:1006DE00B200438E1043878075985253C4DF5389FE
:1006EE000F438920C28C438E085389F043890143FE
:1006FE00B38053B47F75F60043F60143E101120750
:10070E0044D2AF22C28CC28D758CBF758A28D28C12
:10071E00308DFD22120712DAFB22C000A83A120118
:10072E00EDD000C000A8391201EDD000C000A838ED
:10073E001201EDD0002275C80075CDBF75CC28759D
:10074E00C98075CBBF75CA28E4F547F548754900D1
:10075E00C206439B80D2CA22C2CFC0E0C0D0C034F2
:10076E00C035C036C037C030C031C032C033054787
:10077E00E54770020548C375304C7531007532007F
:10078E0075330075340A75350075360075370012ED
:10079E0003D0C3E53095475005C3E5319548B39274
:1007AE0090E547B4E813E548B4030EE4F547F54881
:1007BE00D206E5492401D4F549D033D032D031D018
:1007CE0030D037D036D035D034D0D0D0E032C0E0B3
:1007DE0053E8F043E800C2EFD2EE30EFFDD204D280
:1007EE0003D202D201D200C3E5C394B04005C204C5
:1007FE00D0E022C3E5C394904005C203D0E022C3EB
:10080E00E5C394704005C202D0E022C3E5C3945004
:10081E004005C201D0E022C3E5C394304005C200BA
:10082E00D0E022C3E5C394104003D0E022D0E022F2
:10083E0075817F1206CE1201A8120203C0E0740168
:10084E00141201E8D0E0C083C082C0E090002E12E6
:10085E0001DBD0E0D082D083C0E07401141201E637
:10086E00D0E0C083C082C0E090003E1201DBD0E039
:10087E00D082D0837AFA1207227A321207223006F9
:10088E0004C206B2957A3212072202089BE53DB4E5
:10089E00004CC0E07401141201E8D0E0C083C082A5
:1008AE00C0E090004F1201DBD0E0D082D083C0E0D8
:1008BE007401141201E6D0E0C083C082C0E0900043
:1008CE00601201DBD0E0D082D0837AFA12072212B6
:1008DE000AE2120AED120BB0020887020971B40186
:1008EE00FAC0E07401141201E8D0E0C083C082C0E7
:1008FE00E09000711201DBD0E0D082D083C0E074B2
:10090E0001141201E6D0E0C083C082C0E0900082E4
:10091E001201DBD0E0D082D083C005AD30853F30F0
:10092E00753100753200753300C0E0740B1412017E
:10093E00E6D0E01202561207288D30D005120AE2D8
:10094E00C003C004C0057B3C7C78AD3F120B201267
:10095E000B688D3FD005D004D003120BB0120AEDF8
:10096E00020887B40279C0E07401141201E8D0E0E5
:10097E00C083C082C0E09000931201DBD0E0D08231
:10098E00D083C0E07401141201E6D0E0C083C082AF
:10099E00C0E09000A41201DBD0E0D082D083C0E092
:1009AE00740B141201E6D0E0C005AD308541301253
:1009BE0002561207288D30D005120AE2C003C00479
:1009CE00C0057B967CC8AD41120B20120B688D4181
:1009DE00D005D004D003120BB0120AED020887B472
:1009EE000379C0E07401141201E8D0E0C083C08224
:1009FE00C0E09000B51201DBD0E0D082D083C0E021
:100A0E007401141201E6D0E0C083C082C0E09000F1
:100A1E00C61201DBD0E0D082D083C0E0740B14127A
:100A2E0001E6D0E0C005AD30854330120256120704
:100A3E00288D30D005120AE2C003C004C0057B2DFC
:100A4E007C4BAD43120B20120B688D43D005D004A6
:100A5E00D003120BB0120AED020887C0E074011425
:100A6E001201E8D0E0C083C082C0E09000D712012E
:100A7E00DBD0E0D082D083C0E07401141201E6D046
:100A8E00E0C083C082C0E09000E81201DBD0E0D06D
:100A9E0082D083C0E0740B141201E6D0E0C005AD25
:100AAE00308545301202561207288D30D005120AB5
:100ABE00E2C003C004C0057BD97CFFAD45120B20FC
:100ACE00120B688D45D005D004D003120BB0120A5C
:100ADE00ED0208871207DCA2045001220202131253
:100AEE0007DCA203500122853D30753100753200BE
:100AFE007533007534047535007536007537001280
:100B0E000396D3200507E53D3400F53D22C3753D20
:100B1E0000221207DCA2025001228C3075310075C2
:100B2E0032007533008D347535007536007537001B
:100B3E0012037AD3300505ED3400FD22C3C0E074F4
:100B4E000B141201E6D0E0C083C082C0E09000F921
:100B5E001201DBD0E0D082D083221207DCA201503A
:100B6E0001228B307531007532007533008D34756E
:100B7E00350075360075370012035ED3300505ED6E
:100B8E009400FD22C3C0E0740B141201E6D0E0C045
:100B9E0083C082C0E09001031201DBD0E0D082D08E
:0D0BAE0083221207DCA2005001220204CFB6
:00000001FF
