:03000000020CD11E
:10002B00020C2E20206865726520776520676F2192
:10003B0020200020202020202020202020202020D5
:10004B002020200053657420796F75722076616CC7
:10005B0075657320005072657373206E657874201C
:10006B0020202020200053656C65637420736F6122
:10007B006B2074696D6500536F616B2074696D65DE
:10008B003A2020202020200053656C656374207378
:10009B006F616B2074656D7000536F616B207465BD
:1000AB006D703A2020202020200053656C6563740E
:1000BB00207265666C2074696D65005265666C20F4
:1000CB0074696D653A2020202020200053656C65F3
:1000DB006374207265666C2074656D700052656682
:1000EB006C2074656D703A202020202020006D61FB
:1000FB0078212020202020006D696E2120202020D7
:10010B00200068656C6C6F20706C656173650064B2
:10011B00696500646F6E65210073746F7070656440
:10012B00210052616D7020746F20536F616B212021
:10013B00202000536F616B20537461746521202064
:10014B00200052616D7020746F205065616B21200F
:10015B002020005265666C6F772120202000436FB2
:10016B006F6C646F776E2120202000596F752064AF
:10017B006964206974212020200053657474696EB2
:10018B006773205265736574212000737461746505
:0C019B00312020202020202020202000E7
:1001A700C000788500D8FDD00022C000C0017928A2
:1001B7007868D8FED9FADAF6D001D00022D29412A4
:1001C70001A7C29422A2E79283A2E69282A2E592B5
:1001D70081A2E492801201C41201A7A2E39283A232
:1001E700E29282A2E19281A2E092801201C422D21D
:1001F700930201CCC2930201CCC294C0027A2812A6
:1002070001B1D00274331201FB74331201FB743253
:100217001201FB74281201FB740C1201FB7401120A
:1002270001FBC0027A021201B1D00222E4936006F8
:100237001201F6A380F622444044800201FBC0E08D
:10024700E8C4540F44301201F6E8540F4430120149
:04025700F6D0E022DB
:10025B00753D00753F3C75409675412D7542D92211
:10026B00C0E0740114120240D0E0C083C082C0E031
:10027B00900185120233D0E0D082D083C0E07401AC
:10028B001412023ED0E0C083C082C0E090003E1248
:10029B000233D0E0D082D0837AFA12025B120BEADF
:0302AB00020D1D24
:1002AE0074401201FB741F1201F6741F1201F674D2
:1002BE001F1201F6741F1201F6741F1201F6741F3D
:1002CE001201F6741F1201F6741F1201F674481211
:1002DE0001FB741C1201F6741E1201F6741E12013B
:1002EE00F6741E1201F6741E1201F6741E1201F639
:1002FE00741E1201F6741C1201F674501201FB7476
:10030E00181201F674181201F6741C1201F6741C00
:10031E001201F6741C1201F6741C1201F6741812F6
:10032E0001F674181201F674581201FB74101201C2
:10033E00F674101201F674101201F674181201F60A
:10034E0074181201F674101201F674101201F6747C
:10035E00101201F622C0E074011412023ED0E0B475
:10036E0000030203A5B4010874031201F60203A5EB
:10037E00B4020874021201F60203A5B40308740154
:10038E001201F60203A5C0E074001201F6D0E0C31C
:08039E009404400302036D22E8
:1003A600C0E0C0D0C000C001C002E4F538F539F5A0
:1003B6003AF53BF53C7A20E533A2E779047830E656
:1003C60033F608D9FA79057838E636D4F608D9F935
:1003D600DAE5D002D001D000D0D0D0E022C0E0C013
:1003E600D0C000C001C002E4F538F539F53AF53B56
:1003F600F53C7A20E533A2E779047830E633F6084F
:10040600D9FA79057838C0D0E6243320E70224D01B
:1004160020E30224FDD0D033F608D9EADAD6D0029A
:10042600D001D000D0D0D0E022C0E0C0D0C000C003
:1004360001C0027A207905C3783CE613C0D030E7C4
:100446000224D030E30224FDF618D0D0D9EC79048A
:100456007833E613F618D9FADADBD002D001D000E9
:10046600D0D0D0E022C0E0C0D0E5302534F530E56C
:10047600313535F531E5323536F532E5333537F593
:1004860033D0D0D0E022C0E0C0D0C3E5309534F5FB
:1004960030E5319535F531E5329536F532E533956A
:1004A60037F533D0D0D0E022C0E0C0D0C3E53095D8
:1004B60034E5319535E5329536E53395379205D0F5
:1004C600D0D0E022C0E0C0D0C3E5349530E5359504
:1004D60031E5369532E53795339205D0D0D0E02216
:1004E600C0E0C0D0C205C3E53495307014E535953B
:1004F60031700EE53695327008E53795337002D2C5
:1005060005D0D0D0E0221204E62005030204CA2258
:100516001204E62005030204AE22C0E0C0F0C0D0FB
:10052600C000C001C002C003E5308534F0A4F8A9BC
:10053600F0E5318534F0A429F9E435F0FAE53085A3
:1005460035F0A429F9E5F03AFAE433FBE5328534CF
:10055600F0A42AFAE5F03BFBE5318535F0A42AFA4A
:10056600E5F03BFBE5308536F0A42AFAE5F03BFBE7
:10057600E5338534F0A42BFBE5328535F0A42BFB5F
:10058600E5318536F0A42BFBE5308537F0A42BFB4F
:100596008B338A3289318830D003D002D001D00023
:1005A600D0D0D0F0D0E022C0E0C0D0C000C001C0A2
:1005B60002C003C0047C20E4F8F9FAFBC3E530333B
:1005C600F530E53133F531E53233F532E53333F5E0
:1005D60033E833F8E933F9EA33FAEB33FBC3E8954A
:1005E60034E99535EA9536EB95374013E89534F8B6
:1005F600E99535F9EA9536FAEB9537FB433001DC98
:10060600BBD004D003D002D001D000D0D0D0E0229D
:1006160075AC0075AD0075B30075B40075B10075A5
:10062600B20043B30253B4FD53E1FD43B21053B2DB
:10063600EF53E8F043E80522C034C035C036C03772
:1006460053E1FE53E1FD53E8F043E80775F6004336
:10065600F68043E101C0027A0A120BEAD002C2EF29
:10066600D2EE30EFFDE5C3C4C0E0540FF9D0E0543C
:10067600F045C2F888308931753200753300A830EC
:10068600A931AD32AE33C000C001C005C00653E18A
:10069600FE53E1FD53E8F043E80575F60043F62006
:1006A60043E101C0027A0A120BEAD002C2EFD2EE8F
:1006B60030EFFDE5C3C4C0E0540FFCD0E054F04574
:1006C600C2FB8B308C317532007533007534A075E2
:1006D600358675360175370012052075346F753508
:1006E600007536007537001205ADD006D005D0016D
:1006F600D000883089318D328E33D037D036D03520
:10070600D03422C030C031C032C03312063E8530EC
:1007160034853135853236853337D033D032D031D2
:03072600D03022AE
:10072900754900753E0022754A00D208C0E074017F
:1007390014120240D0E0C083C082C0E090012D12A3
:100749000233D0E0D082D083C0E074011412023E9B
:10075900D0E0C083C082C0E090003E120233D0E0F6
:10076900D082D0831202AE75309675310075320091
:100779007533007534E87535037536007537001221
:100789000520C030C031C032C033120709C034C09F
:1007990035C036C037D033D032D031D030D037D051
:1007A90036D035D034C0D0C0E0C030C031C032C03E
:1007B90033C034C035C036C037753404753500755B
:1007C9003600753700120520D037D036D035D034F1
:1007D9001205ADC0E074011412023ED0E0C083C01E
:1007E90082C0E090003E120233D0E0D082D083E58F
:1007F90030120363C0E074051412023ED0E0D03316
:10080900D032D031D0301203A6C000A83C12024524
:10081900D000C000A83B120245D000C000A83A127F
:100829000245D000C000A839120245D000C000A876
:1008390038120245D000C0E0746F1201F6D0E0C052
:10084900E074431201F6D0E0D0E0D0D07AFF120B69
:10085900EA75496475309675310075320075330053
:10086900753410753527753600753700120520C0A7
:1008790030C031C032C033120709D033D032D03141
:10088900D030C205120516020770754A00C0E0741F
:100899000114120240D0E0C083C082C0E090013E42
:1008A900120233D0E0D082D083C0E0740114120266
:1008B9003ED0E0C083C082C0E090003E120233D037
:1008C900E0D082D083854A307531007532007533A6
:1008D900001203A6C0E074011412023ED0E0C00069
:1008E900A83C120245D000C000A83B120245D00026
:1008F900C000A83A120245D000C000A8391202452A
:10090900D000C000A838120245D000754914C3743C
:100919003C954A500280030208CE754A00C0E07433
:100929000114120240D0E0C083C082C0E090014DA2
:10093900120233D0E0D082D083C0E07401141202D5
:100949003ED0E0C083C082C0E090003E120233D0A6
:10095900E0D082D08312063E1203A6C083C082C0B3
:10096900E090003E120233D0E0D082D083C0E07420
:10097900011412023ED0E0C000A83C120245D0008A
:10098900C000A83B120245D000C000A83A12024597
:10099900D000C000A839120245D000C000A8381202
:1009A9000245D0007549647530DC75310075320037
:1009B9007533007534107535277536007537001293
:1009C9000520C030C031C032C033120709D033D03E
:1009D90032D031D030C20512051620050302095E56
:1009E900754A00C0E0740114120240D0E0C083C00F
:1009F90082C0E090015E120233D0E0D082D083C081
:100A0900E074011412023ED0E0C083C082C0E090BD
:100A1900003E120233D0E0D082D083854A3075314E
:100A2900007532007533001203A6C0E07401141278
:100A3900023ED0E0C000A83C120245D000C000A888
:100A49003B120245D000C000A83A120245D000C0AE
:100A590000A839120245D000C000A838120245D0BA
:100A690000754914C3742D954A50028003020A2463
:100A7900754A00754900C0E0740114120240D0E0C3
:100A8900C083C082C0E0900169120233D0E0D082F5
:100A9900D083C0E074011412023ED0E0C083C0824A
:100AA900C0E090003E120233D0E0D082D08312061B
:100AB9003E1203A6C0E074011412023ED0E0C00049
:100AC900A83C120245D000C000A83B120245D00044
:100AD900C000A83A120245D000C000A83912024548
:100AE900D000C000A838120245D00075303C7531DD
:100AF9000075320075330075341075352775360069
:100B0900753700120520C030C031C032C03312071A
:100B190009D033D032D031D030C20512050C2005AE
:100B290003020AB7754A00C0E0740114120240D0EA
:100B3900E0C083C082C0E090011E120233D0E0D031
:100B490082D083C0E074011412023ED0E0C083C099
:100B590082C0E090003E120233D0E0D082D0837A86
:100B6900FF120BEA120BEA3099FDC299F59922E4BA
:0A0B7900936006120B70A380F622B1
:100B830075AC0075AD0075B30075B40075B1007533
:100B9300B20079C87868D8FED9FA438E10438780AB
:100BA30075985253C4DF53890F438920758DF7D24B
:100BB3008EC28C438E085389F043890143B380531B
:100BC300B47F75490075480075F60043F60143E1AB
:100BD30001120C0CD2AF22C28CC28D758CBF758AE8
:100BE30028D28C308DFD22120BDADAFB22C000A84A
:100BF3003A120245D000C000A839120245D000C005
:100C030000A838120245D0002275C80075CDD775EB
:100C1300CC7975C9A075CBD775CA79E4F544F54588
:100C2300754A00C206439B80D2CA22C2CFC0E0C02D
:100C3300D0C034C035C036C037C030C031C032C078
:100C4300330548C3E5499548B39290E548B4640732
:100C5300754800054AD206D033D032D031D030D0D7
:100C630037D036D035D034D0D0D0E032C0E053E8DE
:100C7300F043E800C2EFD2EE30EFFDD204D203D24C
:100C830002D201D200C3E5C394B04005C204D0E050
:100C930022C3E5C394904005C203D0E022C3E5C359
:100CA30094704005C202D0E022C3E5C394504005CE
:100CB300C201D0E022C3E5C394304005C200D0E0B6
:100CC30022C3E5C394104003D0E022D0E022758113
:100CD3007F120616120B8312020012025BC0E0742D
:100CE3000114120240D0E0C083C082C0E090002E05
:100CF300120233D0E0D082D083C0E0740114120218
:100D03003ED0E0C083C082C0E090003E120233D0E8
:100D1300E0D082D0837AFA120BEA7A32120BEA30ED
:100D23000604C206B2957A32120BEA020D31E53D92
:100D3300B4004CC0E0740114120240D0E0C083C080
:100D430082C0E090004F120233D0E0D082D083C043
:100D5300E074011412023ED0E0C083C082C0E09070
:100D63000060120233D0E0D082D0837AFA120BEA09
:100D7300120F91120F9C12105F020D1D020E07B489
:100D830001FAC0E0740114120240D0E0C083C082B3
:100D9300C0E0900071120233D0E0D082D083C0E073
:100DA30074011412023ED0E0C083C082C0E0900000
:100DB30082120233D0E0D082D083C005AD30853FAC
:100DC30030753100753200753300C0E0740B1412B6
:100DD300023ED0E01203A6120BF08D30D005120FA5
:100DE30091C003C004C0057B3C7C78AD3F120FCF9C
:100DF3001210178D3FD005D004D00312105F120FCD
:100E03009C020D1DB40203020E10020E9CC0E0747E
:100E13000114120240D0E0C083C082C0E09000936E
:100E2300120233D0E0D082D083C0E07401141202E6
:100E33003ED0E0C083C082C0E09000A4120233D051
:100E4300E0D082D083C0E0740B1412023ED0E0C025
:100E530005C030C031C032C03385403075310075B4
:100E630032007533001203A6120BF0D033D032D008
:100E730031D030120F91C003C004C0057B967CC8EB
:100E8300AD40120FCF1210178D40D005D004D00300
:100E930012105F120F9C020D1DB40379C0E07401A0
:100EA30014120240D0E0C083C082C0E09000B512AB
:100EB3000233D0E0D082D083C0E074011412023E2A
:100EC300D0E0C083C082C0E09000C6120233D0E0FD
:100ED300D082D083C0E0740B1412023ED0E0C00570
:100EE300AD308541301203A6120BF08D30D00512C0
:100EF3000F91C003C004C0057B007C2DAD41120FD0
:100F0300CF1210178D41D005D004D00312105F12F9
:100F13000F9C020D1DC0E0740114120240D0E0C00A
:100F230083C082C0E09000D7120233D0E0D082D0D9
:100F330083C0E074011412023ED0E0C083C082C0BB
:100F4300E09000E8120233D0E0D082D083C0E07496
:100F53000B1412023ED0E0C005AD308542301203BF
:100F6300A6120BF08D30D005120F91C003C004C040
:100F7300057BD97CF0AD42120FCF1210178D42D0F2
:100F830005D004D00312105F120F9C020D1D120C2A
:100F93006FA20450012202026B120C6FA2035001D4
:100FA30022853D3075310075320075330075340488
:100FB3007535007536007537001204E6D320050732
:100FC300E53D3400F53D22C3753D0022120C6FA2AE
:100FD300025001228C307531007532007533008D5B
:100FE300347535007536007537001204CAD33005E1
:100FF30005ED3400FD22C3C0E0740B1412023ED091
:10100300E0C083C082C0E09000F9120233D0E0D088
:1010130082D08322120C6FA2015001228B307531D2
:10102300007532007533008D3475350075360075E3
:1010330037001204AED3300505ED9400FD22C3C082
:10104300E0740B1412023ED0E0C083C082C0E09073
:101053000103120233D0E0D082D08322120C6FA29C
:0710630000500122020730DA
:00000001FF
