:03000000020D4F9F
:10002B00020CAC20206865726520776520676F2114
:10003B0020200020202020202020202020202020D5
:10004B002020200053657420796F75722076616CC7
:10005B0075657320005072657373206E657874201C
:10006B0020202020200053656C65637420736F6122
:10007B006B2074696D6500536F616B2074696D65DE
:10008B003A2020202020200053656C656374207378
:10009B006F616B2074656D7000536F616B207465BD
:1000AB006D703A2020202020200053656C6563740E
:1000BB00207265666C2074696D65005265666C20F4
:1000CB0074696D653A2020202020200053656C65F3
:1000DB006374207265666C2074656D700052656682
:1000EB006C2074656D703A202020202020006D61FB
:1000FB0078212020202020006D696E2120202020D7
:10010B00200068656C6C6F20706C656173650064B2
:10011B00696500646F6E65210073746F7070656440
:10012B00210052616D7020746F20536F616B212021
:10013B00202000536F616B20537461746521202064
:10014B00200052616D7020746F205065616B21200F
:10015B002020005265666C6F772120202000436FB2
:10016B006F6C646F776E2120202000596F752064AF
:10017B006964206974212020200041626F72742110
:10018B002020202020202020202000436865636B46
:10019B00206F76656E21202020202000536574741B
:1001AB00696E6773205265736574212000737461E7
:0E01BB007465312020202020202020202000EC
:1001C900C000788500D8FDD00022C000C001792880
:1001D9007868D8FED9FADAF6D001D00022D2941282
:1001E90001C9C29422A2E79283A2E69282A2E59271
:1001F90081A2E492801201E61201C9A2E39283A2CC
:10020900E29282A2E19281A2E092801201E622D2D8
:10021900930201EEC2930201EEC294C0027A28123F
:1002290001D3D002743312021D743312021D7432C9
:1002390012021D742812021D740C12021D7401127F
:10024900021DC0027A021201D3D00222E493600691
:10025900120218A380F6224440448002021DC0E025
:10026900E8C4540F4430120218E8540F4430120203
:0402790018D0E02297
:10027D00753D00753F3C75409675412D7542D922EF
:10028D00C0E0740114120262D0E0C083C082C0E0ED
:10029D009001A7120255D0E0D082D083C0E0740146
:1002AD0014120260D0E0C083C082C0E090003E1204
:1002BD000255D0E0D082D0837AFA12027D120C68FA
:0302CD00020D9B84
:1002D000744012021D741F120218741F1202187447
:1002E0001F120218741F120218741F120218741FB2
:1002F000120218741F120218741F12021874481286
:10030000021D741C120218741E120218741E1202AE
:1003100018741E120218741E120218741E1202188B
:10032000741E120218741C120218745012021D74EA
:10033000181202187418120218741C120218741C75
:10034000120218741C120218741C1202187418126B
:1003500002187418120218745812021D7410120236
:10036000187410120218741012021874181202185D
:1003700074181202187410120218741012021874F1
:100380001012021822C0E0740114120260D0E0B40E
:1003900000030203C7B4010874031202180203C762
:1003A000B4020874021202180203C7B403087401ED
:1003B0001202180203C7C0E07400120218D0E0C392
:0803C0009404400302038F22A4
:1003C800C0E0C0D0C000C001C002E4F538F539F57E
:1003D8003AF53BF53C7A20E533A2E779047830E634
:1003E80033F608D9FA79057838E636D4F608D9F913
:1003F800DAE5D002D001D000D0D0D0E022C0E0C0F1
:10040800D0C000C001C002E4F538F539F53AF53B33
:10041800F53C7A20E533A2E779047830E633F6082C
:10042800D9FA79057838C0D0E6243320E70224D0F9
:1004380020E30224FDD0D033F608D9EADAD6D00278
:10044800D001D000D0D0D0E022C0E0C0D0C000C0E1
:1004580001C0027A207905C3783CE613C0D030E7A2
:100468000224D030E30224FDF618D0D0D9EC790468
:100478007833E613F618D9FADADBD002D001D000C7
:10048800D0D0D0E022C0E0C0D0E5302534F530E54A
:10049800313535F531E5323536F532E5333537F571
:1004A80033D0D0D0E022C0E0C0D0C3E5309534F5D9
:1004B80030E5319535F531E5329536F532E5339548
:1004C80037F533D0D0D0E022C0E0C0D0C3E53095B6
:1004D80034E5319535E5329536E53395379205D0D3
:1004E800D0D0E022C0E0C0D0C3E5349530E53595E2
:1004F80031E5369532E53795339205D0D0D0E022F4
:10050800C0E0C0D0C205C3E53495307014E5359518
:1005180031700EE53695327008E53795337002D2A2
:1005280005D0D0D0E0221205082005030204EC22F1
:100538001205082005030204D022C0E0C0F0C0D094
:10054800C000C001C002C003E5308534F0A4F8A99A
:10055800F0E5318534F0A429F9E435F0FAE5308581
:1005680035F0A429F9E5F03AFAE433FBE5328534AD
:10057800F0A42AFAE5F03BFBE5318535F0A42AFA28
:10058800E5F03BFBE5308536F0A42AFAE5F03BFBC5
:10059800E5338534F0A42BFBE5328535F0A42BFB3D
:1005A800E5318536F0A42BFBE5308537F0A42BFB2D
:1005B8008B338A3289318830D003D002D001D00001
:1005C800D0D0D0F0D0E022C0E0C0D0C000C001C080
:1005D80002C003C0047C20E4F8F9FAFBC3E5303319
:1005E800F530E53133F531E53233F532E53333F5BE
:1005F80033E833F8E933F9EA33FAEB33FBC3E89528
:1006080034E99535EA9536EB95374013E89534F893
:10061800E99535F9EA9536FAEB9537FB433001DC75
:10062800BBD004D003D002D001D000D0D0D0E0227B
:1006380075AC0075AD0075B30075B40075B1007583
:10064800B20043B30253B4FD53E1FD43B21053B2B9
:10065800EF53E8F043E80522C034C035C036C03750
:1006680053E1FD53E8F043E80775F60043F680C20E
:10067800EFD2EE30EFFDE5C3C4C0E0540FF9D0E08F
:1006880054F045C2F88830893175320075330075E9
:10069800348C75350575360075370012054275348A
:1006A800007535D47536307537001204AEA830A9F8
:1006B80031AD32AE33C000C001C005C00653E1FD04
:1006C80053E8F043E80575F60043F620C2EFD2EE92
:1006D80030EFFDE5C3C4C0E0540FFCD0E054F04552
:1006E800C2FB8B308C317532007533007534A075C0
:1006F800358675360175370012054275346F7535C4
:10070800007536007537001205CFD006D005D00128
:10071800D000883489358D368E3712048DD037D085
:1007280036D035D03422C030C031C032C033120682
:1007380060853034853135853236853337D033D0CE
:0607480032D031D0302256
:10074E00754900753E0022754A00D208C0E074015A
:10075E0014120262D0E0C083C082C0E090012D125C
:10076E000255D0E0D082D083C0E074011412026032
:10077E00D0E0C083C082C0E090003E120255D0E0AF
:10078E00D082D0831202D07530967531007532004A
:10079E007533007534E875350375360075370012FC
:1007AE000542C030C031C032C03312072EC034C033
:1007BE0035C036C037D033D032D031D030D037D02C
:1007CE0036D035D034C0D0C0E0C030C031C032C019
:1007DE0033C034C035C036C0377534047535007536
:1007EE003600753700120542D037D036D035D034AA
:1007FE001205CFC0E0740114120260D0E0C083C0B5
:10080E0082C0E090003E120255D0E0D082D083E547
:10081E0030120385C0E0740B14120260D0E0D033A6
:10082E00D032D031D0301203C8C000A83B120267BC
:10083E00D000C000A83A120267D000C0E0746F1258
:10084E000218D0E0C0E07443120218D0E0D0E0D01D
:10085E00D07AFF120C687549647530967531007543
:10086E0032007533007534107535277536007537BF
:10087E0000120542C030C031C032C03312072ED034
:10088E0033D032D031D030C20512053820050302E4
:10089E000795754A00C0E0740114120262D0E0C0E0
:1008AE0083C082C0E090013E120255D0E0D082D0CB
:1008BE0083C0E0740114120260D0E0C083C082C015
:1008CE00E090003E120255D0E0D082D083854A30AF
:1008DE0075310075320075330075347875350075D5
:1008EE003600753700C0D0C0E0C034C035C036C049
:1008FE0037C030C031C032C033C034C035C036C04E
:10090E00377534047535007536007537001205429B
:10091E00D037D036D035D0341205CFC0E0740114A4
:10092E00120260D0E0C083C082C0E090003E12028E
:10093E0055D0E0D082D083E530120385C0E0740B31
:10094E0014120260D0E0D037D036D035D034D03348
:10095E00D032D031D0301204AE1203C8C000A83B42
:10096E00120267D000C000A83A120267D000C0E0A1
:10097E00746F120218D0E0C0E07443120218D0E077
:10098E00D0E0D0D0754914C3743C954A5002800310
:10099E000208DB754A00C0E0740114120262D0E056
:1009AE00C083C082C0E090014D120255D0E0D082CB
:1009BE00D083C0E0740114120260D0E0C083C08204
:1009CE00C0E090003E120255D0E0D082D0831206D5
:1009DE00601203C8C083C082C0E090003E12025570
:1009EE00D0E0D082D083C0E0740114120260D0E057
:1009FE00C000A83C120267D000C000A83B120267DC
:100A0E00D000C000A83A120267D000C000A8391268
:100A1E000267D000C000A838120267D00075496482
:100A2E007530DC7531007532007533007534107514
:100A3E003527753600753700120542C030C031C0FB
:100A4E0032C03312072ED033D032D031D030C2055F
:100A5E001205382005030209DC754A00C0E0740156
:100A6E0014120262D0E0C083C082C0E090015E1218
:100A7E000255D0E0D082D083C0E07401141202601F
:100A8E00D0E0C083C082C0E090003E120255D0E09C
:100A9E00D082D083854A30753100753200753300AF
:100AAE001203C8C0E0740114120260D0E0C000A8A6
:100ABE003C120267D000C000A83B120267D000C0F3
:100ACE0000A83A120267D000C000A839120267D0FF
:100ADE0000C000A838120267D000754914C3742DE7
:100AEE00954A50028003020AA2754A00754900C059
:100AFE00E0740114120262D0E0C083C082C0E090A4
:100B0E000169120255D0E0D082D083C0E074011486
:100B1E00120260D0E0C083C082C0E090003E12029C
:100B2E0055D0E0D082D0831206601203C8C0E074A4
:100B3E000114120260D0E0C000A83C120267D0007F
:100B4E00C000A83B120267D000C000A83A1202678C
:100B5E00D000C000A839120267D000C000A8381219
:100B6E000267D00075303C75310075320075330068
:100B7E00753410753527753600753700120542C06D
:100B8E0030C031C032C03312072ED033D032D03104
:100B9E00D030C20512052E200503020B35754A0012
:100BAE00C0E0740114120262D0E0C083C082C0E0C3
:100BBE0090011E120255D0E0D082D083C0E07401A5
:100BCE0014120260D0E0C083C082C0E090003E12DA
:100BDE000255D0E0D082D0837AFF120C68120C68D6
:100BEE003099FDC299F59922E4936006120BEEA39B
:030BFE0080F6225C
:100C010075AC0075AD0075B30075B40075B10075B4
:100C1100B20079C87868D8FED9FA438E104387802C
:100C210075985253C4DF53890F438920758DF7D2CC
:100C31008EC28C438E085389F043890143B380539C
:100C4100B47F75490075480075F60043F60143E12C
:100C510001120C8AD2AF22C28CC28D758CBF758AEB
:100C610028D28C308DFD22120C58DAFB22C000A84C
:100C71003A120267D000C000A839120267D000C042
:100C810000A838120267D0002275C80075CDD7754B
:100C9100CC7975C9A075CBD775CA79E4F544F5450A
:100CA100754A00C206439B80D2CA22C2CFC0E0C0AF
:100CB100D0C034C035C036C037C030C031C032C0FA
:100CC100330548C3E5499548B39290E548B46407B4
:100CD100754800054AD206D033D032D031D030D059
:100CE10037D036D035D034D0D0D0E032C0E053E860
:100CF100F043E800C2EFD2EE30EFFDD204D203D2CE
:100D010002D201D200C3E5C394B04005C204D0E0D1
:100D110022C3E5C394904005C203D0E022C3E5C3DA
:100D210094704005C202D0E022C3E5C3945040054F
:100D3100C201D0E022C3E5C394304005C200D0E037
:100D410022C3E5C394104003D0E022D0E022758194
:100D51007F120638120C0112022212027DC0E074C9
:100D61000114120262D0E0C083C082C0E090002E64
:100D7100120255D0E0D082D083C0E0740114120277
:100D810060D0E0C083C082C0E090003E120255D026
:100D9100E0D082D0837AFA120C687A32120C683071
:100DA1000604C206B2957A32120C68020DAFE53D17
:100DB100B4004CC0E0740114120262D0E0C083C0E0
:100DC10082C0E090004F120255D0E0D082D083C0A3
:100DD100E0740114120260D0E0C083C082C0E090D0
:100DE1000060120255D0E0D082D0837AFA120C68EA
:100DF10012100F12101A1210DD020D9B020E85B493
:100E010001FAC0E0740114120262D0E0C083C08212
:100E1100C0E0900071120255D0E0D082D083C0E0D2
:100E2100740114120260D0E0C083C082C0E090005F
:100E310082120255D0E0D082D083C005AD30853F0B
:100E410030753100753200753300C0E0740B141237
:100E51000260D0E01203C8120C6E8D30D005121062
:100E61000FC003C004C0057B3C7C78AD3F12104D20
:100E71001210958D3FD005D004D0031210DD121051
:100E81001A020D9BB40203020E8E020F1AC0E07407
:100E91000114120262D0E0C083C082C0E0900093CE
:100EA100120255D0E0D082D083C0E0740114120246
:100EB10060D0E0C083C082C0E09000A4120255D08F
:100EC100E0D082D083C0E0740B14120260D0E0C085
:100ED10005C030C031C032C0338540307531007536
:100EE10032007533001203C8120C6ED033D032D0E9
:100EF10031D03012100FC003C004C0057B967CC8EE
:100F0100AD4012104D1210958D40D005D004D00384
:100F11001210DD12101A020D9BB40379C0E07401A6
:100F210014120262D0E0C083C082C0E09000B5120A
:100F31000255D0E0D082D083C0E074011412026067
:100F4100D0E0C083C082C0E09000C6120255D0E05C
:100F5100D082D083C0E0740B14120260D0E0C005CF
:100F6100AD308541301203C8120C6E8D30D00512A0
:100F7100100FC003C004C0057B007C2DAD411210D1
:100F81004D1210958D41D005D004D0031210DD1201
:100F9100101A020D9BC0E0740114120262D0E0C06D
:100FA10083C082C0E09000D7120255D0E0D082D039
:100FB10083C0E0740114120260D0E0C083C082C01B
:100FC100E09000E8120255D0E0D082D083C0E074F6
:100FD1000B14120260D0E0C005AD3085423012031F
:100FE100C8120C6E8D30D00512100FC003C004C0A2
:100FF100057BD97CF0AD4212104D1210958D42D077
:1010010005D004D0031210DD12101A020D9B120C30
:10101100EDA20450012202028D120CEDA203500137
:1010210022853D3075310075320075330075340409
:10103100753500753600753700120508D320050790
:10104100E53D3400F53D22C3753D0022120CEDA2B1
:10105100025001228C307531007532007533008DDC
:10106100347535007536007537001204ECD3300540
:1010710005ED3400FD22C3C0E0740B14120260D0F0
:10108100E0C083C082C0E09000F9120255D0E0D0E8
:1010910082D08322120CEDA2015001228B307531D6
:1010A100007532007533008D347535007536007565
:1010B10037001204D0D3300505ED9400FD22C3C0E2
:1010C100E0740B14120260D0E0C083C082C0E090D3
:1010D1000103120255D0E0D082D08322120CEDA27E
:0710E1000050012202075537
:00000001FF
