:03000000021119D1
:10002B0002106920206865726520776520676F2153
:10003B0020200020202020202020202020202020D5
:10004B002020200053657420796F75722076616CC7
:10005B0075657320005072657373206E657874201C
:10006B0020202020200053656C65637420736F6122
:10007B006B2074696D6500536F616B2074696D65DE
:10008B003A2020202020200053656C656374207378
:10009B006F616B2074656D7000536F616B207465BD
:1000AB006D703A2020202020200053656C6563740E
:1000BB00207265666C2074696D65005265666C20F4
:1000CB0074696D653A2020202020200053656C65F3
:1000DB006374207265666C2074656D700052656682
:1000EB006C2074656D703A202020202020006D61FB
:1000FB0078212020202020006D696E2120202020D7
:10010B00200068656C6C6F20706C656173650064B2
:10011B00696500646F6E65210073746F7070656440
:10012B00210052616D7020746F20536F616B212021
:10013B00202000536F616B20537461746521202064
:10014B002020200052616D7020746F205065616B10
:10015B0021202020005265666C6F77212020202003
:10016B00202020202000436F6F6C646F776E21205E
:10017B0020202020202000596F752064696420699D
:10018B0074212020202020004F76656E2073746F21
:10019B007070656421202020005741524E494E4714
:1001AB003A20484F54212020200054656D70207454
:1001BB006F6F206C6F772120202000436865636B85
:1001CB00206F76656E2120202020200053657474EB
:1001DB00696E6773205265736574212000737461B7
:0E01EB007465312020202020202020202000BC
:1001F900C000788500D8FDD00022C000C001792850
:100209007868D8FED9FADAF6D001D00022D2941251
:1002190001F9C29422A2E79283A2E69282A2E59210
:1002290081A2E492801202161201F9A2E39283A23A
:10023900E29282A2E19281A2E0928012021622D277
:100249009302021EC29302021EC294C0027A2812AD
:100259000203D002743312024D743312024D743208
:1002690012024D742812024D740C12024D740112BF
:10027900024DC0027A02120203D00222E493600600
:10028900120248A380F6224440448002024DC0E095
:10029900E8C4540F4430120248E8540F44301202A3
:0402A90048D0E02237
:1002AD00753D00753F3C75409675412D7542D922BF
:1002BD00C0E0740114120292D0E0C083C082C0E08D
:1002CD009001D7120285D0E0D082D083C0E07401B6
:1002DD0014120290D0E0C083C082C0E090003E12A4
:1002ED000285D0E0D082D0837AFA1202AD121025A9
:0302FD0002116883
:10030000744012024D741F120248741F1202487486
:100310001F120248741F120248741F120248741FF1
:10032000120248741F120248741F120248744812C5
:10033000024D741C120248741E120248741E1202EE
:1003400048741E120248741E120248741E1202489B
:10035000741E120248741C120248745012024D742A
:10036000181202487418120248741C120248741CB5
:10037000120248741C120248741C120248741812AB
:1003800002487418120248745812024D7410120276
:10039000487410120248741012024874181202486D
:1003A0007418120248741012024874101202487431
:1003B0001012024822C0E0740114120290D0E0B47E
:1003C00000030203F7B4010874031202480203F7A2
:1003D000B4020874021202480203F7B4030874015D
:1003E0001202480203F7C0E07400120248D0E0C3D2
:0803F000940440030203BF2244
:1003F800C0E0C0D0C000C001C002E4F538F539F54E
:100408003AF53BF53C7A20E533A2E779047830E603
:1004180033F608D9FA79057838E636D4F608D9F9E2
:10042800DAE5D002D001D000D0D0D0E022C0E0C0C0
:10043800D0C000C001C002E4F538F539F53AF53B03
:10044800F53C7A20E533A2E779047830E633F608FC
:10045800D9FA79057838C0D0E6243320E70224D0C9
:1004680020E30224FDD0D033F608D9EADAD6D00248
:10047800D001D000D0D0D0E022C0E0C0D0C000C0B1
:1004880001C0027A207905C3783CE613C0D030E772
:100498000224D030E30224FDF618D0D0D9EC790438
:1004A8007833E613F618D9FADADBD002D001D00097
:1004B800D0D0D0E022C0E0C0D0E5302534F530E51A
:1004C800313535F531E5323536F532E5333537F541
:1004D80033D0D0D0E022C0E0C0D0C3E5309534F5A9
:1004E80030E5319535F531E5329536F532E5339518
:1004F80037F533D0D0D0E022C0E0C0D0C3E5309586
:1005080034E5319535E5329536E53395379205D0A2
:10051800D0D0E022C0E0C0D0C3E5349530E53595B1
:1005280031E5369532E53795339205D0D0D0E022C3
:10053800C0E0C0D0C205C3E53495307014E53595E8
:1005480031700EE53695327008E53795337002D272
:1005580005D0D0D0E02212053820050302051C2260
:1005680012053820050302050022C0E0C0F0C0D003
:10057800C000C001C002C003E5308534F0A4F8A96A
:10058800F0E5318534F0A429F9E435F0FAE5308551
:1005980035F0A429F9E5F03AFAE433FBE53285347D
:1005A800F0A42AFAE5F03BFBE5318535F0A42AFAF8
:1005B800E5F03BFBE5308536F0A42AFAE5F03BFB95
:1005C800E5338534F0A42BFBE5328535F0A42BFB0D
:1005D800E5318536F0A42BFBE5308537F0A42BFBFD
:1005E8008B338A3289318830D003D002D001D000D1
:1005F800D0D0D0F0D0E022C0E0C0D0C000C001C050
:1006080002C003C0047C20E4F8F9FAFBC3E53033E8
:10061800F530E53133F531E53233F532E53333F58D
:1006280033E833F8E933F9EA33FAEB33FBC3E895F7
:1006380034E99535EA9536EB95374013E89534F863
:10064800E99535F9EA9536FAEB9537FB433001DC45
:10065800BBD004D003D002D001D000D0D0D0E0224B
:1006680075AC0075AD0075B30075B40075B1007553
:10067800B20043B30253B4FD53E1FD43B21053B289
:10068800EF53E8F043E80522C034C035C036C03720
:1006980053E1FD53E8F043E80775F60043F680C2DE
:1006A800EFD2EE30EFFDE5C3C4C0E0540FF9D0E05F
:1006B80054F045C2F88830893175320075330075B9
:1006C800348C75350575360075370012057275342A
:1006D800007535D47536307537001204DEA830A998
:1006E80031AD32AE33C000C001C005C00653E1FDD4
:1006F80053E8F043E80575F60043F620C2EFD2EE62
:1007080030EFFDE5C3C4C0E0540FFCD0E054F04521
:10071800C2FB8B308C317532007533007534A0758F
:10072800358675360175370012057275346F753563
:10073800007536007537001205FFD006D005D001C8
:10074800D000883489358D368E371204BDD037D025
:1007580036D035D03422C030C031C032C033120652
:1007680090853034853135853236853337D033D06E
:0607780032D031D0302226
:10077E00754096753F3C75412D7542D97543007590
:10078E004900753E0022754A00D209D208C0E074B5
:10079E000114120292D0E0C083C082C0E090012DFD
:1007AE00120285D0E0D082D083C0E0740114120210
:1007BE0090D0E0C083C082C0E090003E120285D08F
:1007CE00E0D082D0831203001210B7A200400620A0
:1007DE000905020ECEC20985403075310075320012
:1007EE007533007534107535277536007537001260
:1007FE000572C030C031C032C03312075EC034C083
:10080E0035C036C037D033D032D031D030D037D0DB
:10081E0036D035D034C0D0C0E0C030C031C032C0C8
:10082E0033C034C035C036C03775342875350075C1
:10083E003600753700120572D037D036D035D03429
:10084E001205FFC0E0740114120290D0E0C083C004
:10085E0082C0E090003E120285D0E0D082D083E5C7
:10086E00301203B5C0E0740B14120290D0E0D033F6
:10087E00D032D031D0301203F8C000A83B1202970C
:10088E00D000C000A83A120297D000C0E0746F12D8
:10089E000248D0E0C0E07443120248D0E0D0E0D06D
:1008AE00D07AFF121025743C954A501A7534C075D3
:1008BE003527753609753700120690C20512056880
:1008CE00300503020F11754964854030753100758E
:1008DE00320075330075341075352775360075374F
:1008EE0000120572C030C031C032C03312075ED064
:1008FE0033D032D031D030C2051205682005030244
:10090E0007D6754A00C0E0740114120292D0E0C0FE
:10091E0083C082C0E090013E120285D0E0D082D02A
:10092E0083C0E0740114120290D0E0C083C082C074
:10093E00E090003E120285D0E0D082D0831210B734
:10094E00A2004006200905020ECEC209854A307566
:10095E003100753200753300853F347535007536BC
:10096E0000753700C0D0C0E0C034C035C036C037C7
:10097E00C030C031C032C033C034C035C036C037CD
:10098E00753428753500753600753700120572D02E
:10099E0037D036D035D0341205FFC0E074011412B2
:1009AE000290D0E0C083C082C0E090003E1202856B
:1009BE00D0E0D082D083E5301203B5D037D036D018
:1009CE0035D034D033D032D031D0301204DEC030F6
:1009DE00C031C032C03375343C7535007536007584
:1009EE0037001205FF75343C7535007536007537C6
:1009FE0000120572C030C031C032C033D037D0368D
:100A0E00D035D034D033D032D031D0301204DEC015
:100A1E0030C031C032C033C034C035C036C037D01C
:100A2E0033D032D031D03075343C75350075360048
:100A3E007537001205FF753464753500753600750F
:100A4E003700120572D037D036D035D0341204BDEF
:100A5E001203F8C0E0740C14120290D0E0C000A88B
:100A6E0039120297D000C0E0743A120248D0E0C0AA
:100A7E0000A838120297D0007A14121025D0E0D0B8
:100A8E00D0754914C3E53F954A5002800302094BC5
:100A9E00754A00C0E0740114120292D0E0C083C007
:100AAE0082C0E090014F120285D0E0D082D083C088
:100ABE00E0740114120290D0E0C083C082C0E090B6
:100ACE00003E120285D0E0D082D0831210B7A20071
:100ADE004006200905020ECEC209854230854331FB
:100AEE0075320075330075341075352775360075FF
:100AFE003700120572C030C031C032C03312075EEB
:100B0E00C034C035C036C037D033D032D031D030FB
:100B1E00D037D036D035D034C0D0C0E0C030C031A0
:100B2E00C032C033C034C035C036C03775342875B6
:100B3E003500753600753700120572D037D036D0B5
:100B4E0035D0341205FFC0E0740114120290D0E0CB
:100B5E00C083C082C0E090003E120285D0E0D082F9
:100B6E00D083E5301203B5C0E0740B14120290D09E
:100B7E00E0D033D032D031D0301203F8C000A83BD1
:100B8E00120297D000C000A83A120297D000C0E01F
:100B9E00746F120248D0E0C0E07443120248D0E0F5
:100BAE00D0E0D0D07AFF1210257549648542308589
:100BBE00433175320075330075341075352775362F
:100BCE0000753700120572C030C031C032C033120A
:100BDE00075ED033D032D031D030C2051205682036
:100BEE000503020AD9754A00C0E07401141202927C
:100BFE00D0E0C083C082C0E0900160120285D0E0D8
:100C0E00D082D083C0E0740114120290D0E0C08371
:100C1E00C082C0E090003E120285D0E0D082D08328
:100C2E001210B7A2004006200905020ECEC2098599
:100C3E004A30753100753200753300854134753593
:100C4E0000753600753700C0D0C0E0C034C035C066
:100C5E0036C037C030C031C032C033C034C035C0EA
:100C6E0036C0377534287535007536007537001265
:100C7E000572D037D036D035D0341205FFC0E074AF
:100C8E000114120290D0E0C083C082C0E090003EFA
:100C9E00120285D0E0D082D083E5301203B5D03772
:100CAE00D036D035D034D033D032D031D03012040B
:100CBE00DEC030C031C032C03375343C753500757E
:100CCE0036007537001205FF75343C7535007536E4
:100CDE0000753700120572C030C031C032C033D03B
:100CEE0037D036D035D034D033D032D031D0301298
:100CFE0004DEC030C031C032C033C034C035C0365F
:100D0E00C037D033D032D031D03075343C75350049
:100D1E007536007537001205FF753464753500752C
:100D2E003600753700120572D037D036D035D03434
:100D3E001204BD1203F8C0E0740C14120290D0E03D
:100D4E00C000A839120297D000C0E0743A120248CF
:100D5E00D0E0C000A838120297D0007A14121025E5
:100D6E00D0E0D0D0754914C3E541954A50028003B6
:100D7E00020C2E754A00C0E0740114120292D0E0EB
:100D8E00C083C082C0E0900171120285D0E0D08293
:100D9E00D083C0E0740114120290D0E0C083C082F0
:100DAE00C0E090003E120285D0E0D082D083753034
:100DBE00C075312775320975330012075EC034C015
:100DCE0035C036C037C030C031C032C033C0D0C0DD
:100DDE00E0C034C035C036C037C034C035C036C0B0
:100DEE003775342875350075360075370012057263
:100DFE00D037D036D035D0341205FFC0E074011490
:100E0E00120290D0E0C083C082C0E090003E120279
:100E1E0085D0E0D082D083E5301203B5C0E0740BEC
:100E2E0014120290D0E0D033D032D031D030120331
:100E3E00F8C000A83B120297D000C000A83A1202D8
:100E4E0097D000C0E0746F120248D0E0C0E0744347
:100E5E00120248D0E0D0E0D0D07AFF1210257549AA
:100E6E0000D037D036D035D034D033D032D031D088
:100E7E0030C205120568200503020DBC754A00C07C
:100E8E00E0740114120292D0E0C083C082C0E090E0
:100E9E00011E120285D0E0D082D083C0E07401140E
:100EAE00120290D0E0C083C082C0E090003E1202D9
:100EBE0085D0E0D082D0837AFF1210251210252221
:100ECE00C0E0740114120292D0E0C083C082C0E070
:100EDE00900193120285D0E0D082D083C0E07401DD
:100EEE0014120290D0E0C083C082C0E09001A41220
:100EFE000285D0E0D082D0837549007AFF1210258A
:100F0E00020DBCC0E0740114120292D0E0C083C086
:100F1E0082C0E09001B5120285D0E0D082D083C0AD
:100F2E00E0740114120290D0E0C083C082C0E09041
:100F3E0001C6120285D0E0D082D083754900020E20
:100F4E00C53099FDC299F59922E4936006120F4FB0
:040F5E00A380F62254
:100F6200E53B540F2430120F4FE53A54F0C42430BD
:100F7200120F4FE53A540F2430120F4F742E120FF6
:100F82004FE539C4540F2430120F4FE539540F2462
:100F920030120F4FE538C4540F2430120F4FE5388A
:100FA200540F2430120F4F7443120F4F740D120F4F
:100FB2004F740A120F4F2275AC0075AD0075B30065
:100FC20075B40075B10075B20079C87868D8FED9D9
:100FD200FA438E1043878075985253C4DF53890FAA
:100FE200438920758DFF758BF7D28EC28C438E0894
:100FF2005389F043890143B38053B47F7549007527
:10100200480075F60043F60143E101C20912104798
:10101200D2AF22C28CC28D758CBF758A28D28C3019
:101022008DFD22121015DAFB22C000A83A12029797
:10103200D000C000A839120297D000C000A8381210
:101042000297D0002275C80075CDD775CC7975C9C5
:10105200A075CBD775CA79E4F544F545754A00C247
:1010620006439B80D2CA22C2CFC0E0C0D0C005C016
:1010720034C035C036C037C030C031C032C033058D
:1010820048C3E5499548B39290E548B46410754861
:1010920000054AD2061206901203F8120F62D033EC
:1010A200D032D031D030D037D036D035D034D00550
:1010B200D0D0D0E032C0E053E8F043E800C2EFD233
:1010C200EE30EFFDD204D203D202D201D200C3E548
:1010D200C394B04005C204D0E022C3E5C39490405B
:1010E20005C203D0E022C3E5C394704005C202D01A
:1010F200E022C3E5C394504005C201D0E022C3E51B
:10110200C394304005C200D0E022C3E5C39410402E
:1011120003D0E022D0E02275817F120668120FB957
:101122001202521202AD12077EC0E07401141202C2
:1011320092D0E0C083C082C0E090002E120285D01F
:10114200E0D082D083C0E0740114120290D0E0C0DB
:1011520083C082C0E090003E120285D0E0D082D0EF
:10116200837AFA1210257A32121025300602C2064C
:101172007A3212102502117AE53DB4004CC0E074B7
:101182000114120292D0E0C083C082C0E090004FEE
:10119200120285D0E0D082D083C0E0740114120222
:1011A20090D0E0C083C082C0E0900060120285D07F
:1011B200E0D082D0837AFA1210251213DA1213E5E4
:1011C2001214A8021168021250B401FAC0E07401AC
:1011D20014120292D0E0C083C082C0E0900071126B
:1011E2000285D0E0D082D083C0E074011412029054
:1011F200D0E0C083C082C0E0900082120285D0E0BD
:10120200D082D083C005AD30853F30753100753254
:1012120000753300C0E0740B14120290D0E0120388
:10122200F812102B8D30D0051213DAC003C004C09F
:10123200057B3C7C78AD3F1214181214608D3FD0B0
:1012420005D004D0031214A81213E5021168B402E7
:10125200030212590212E5C0E0740114120292D084
:10126200E0C083C082C0E0900093120285D0E0D03B
:1012720082D083C0E0740114120290D0E0C083C017
:1012820082C0E09000A4120285D0E0D082D083C058
:10129200E0740B14120290D0E0C005C030C031C01F
:1012A20032C033854030753100753200753300121B
:1012B20003F812102BD033D032D031D0301213DADF
:1012C200C003C004C0057B967CC8AD40121418123E
:1012D20014608D40D005D004D0031214A81213E577
:1012E200021168B40379C0E0740114120292D0E0D2
:1012F200C083C082C0E09000B5120285D0E0D082E7
:10130200D083C0E0740114120290D0E0C083C08286
:10131200C0E09000C6120285D0E0D082D083C0E047
:10132200740B14120290D0E0C005AD30854130122A
:1013320003F812102B8D30D0051213DAC003C0044B
:10134200C0057B007C2DAD411214181214608D4132
:10135200D005D004D0031214A81213E5021168C0FC
:10136200E0740114120292D0E0C083C082C0E09007
:1013720000D7120285D0E0D082D083C0E07401147D
:10138200120290D0E0C083C082C0E09000E8120256
:1013920085D0E0D082D083C0E0740B14120290D0CA
:1013A200E0C005AD308542301203F812102B8D30AB
:1013B200D0051213DAC003C004C0057BD97CF0AD9E
:1013C200421214181214608D42D005D004D00312B8
:1013D20014A81213E50211681210B7A204500122D8
:1013E2000202BD1210B7A203500122853D307531B1
:1013F200007532007533007534047535007536009A
:10140200753700120538D3200507E53D3400F53D58
:1014120022C3753D00221210B7A2025001228C3065
:101422007531007532007533008D347535007536AF
:101432000075370012051CD3300505ED3400FD227E
:10144200C3C0E0740B14120290D0E0C083C082C00B
:10145200E09000F9120285D0E0D082D083221210EF
:10146200B7A2015001228B307531007532007533FD
:10147200008D34753500753600753700120500D3BE
:10148200300505ED9400FD22C3C0E0740B14120276
:1014920090D0E0C083C082C0E0900103120285D0E8
:1014A200E0D082D083221210B7A20050012202079C
:0114B20094A5
:00000001FF
