:0300000002107279
:10002B00020FCF20206865726520776520676F21EE
:10003B0020200020202020202020202020202020D5
:10004B002020200053657420796F75722076616CC7
:10005B0075657320005072657373206E657874201C
:10006B0020202020200053656C65637420736F6122
:10007B006B2074696D6500536F616B2074696D65DE
:10008B003A2020202020200053656C656374207378
:10009B006F616B2074656D7000536F616B207465BD
:1000AB006D703A2020202020200053656C6563740E
:1000BB00207265666C2074696D65005265666C20F4
:1000CB0074696D653A2020202020200053656C65F3
:1000DB006374207265666C2074656D700052656682
:1000EB006C2074656D703A202020202020006D61FB
:1000FB0078212020202020006D696E2120202020D7
:10010B00200068656C6C6F20706C656173650064B2
:10011B00696500646F6E65210073746F7070656440
:10012B00210052616D7020746F20536F616B212021
:10013B00202000536F616B20537461746521202064
:10014B00200052616D7020746F205065616B21200F
:10015B002020005265666C6F772120202000436FB2
:10016B006F6C646F776E2120202000596F752064AF
:10017B006964206974212020200041626F72742110
:10018B002020202020202020202000436865636B46
:10019B00206F76656E21202020202000536574741B
:1001AB00696E6773205265736574212000737461E7
:0E01BB007465312020202020202020202000EC
:1001C900C000788500D8FDD00022C000C001792880
:1001D9007868D8FED9FADAF6D001D00022D2941282
:1001E90001C9C29422A2E79283A2E69282A2E59271
:1001F90081A2E492801201E61201C9A2E39283A2CC
:10020900E29282A2E19281A2E092801201E622D2D8
:10021900930201EEC2930201EEC294C0027A28123F
:1002290001D3D002743312021D743312021D7432C9
:1002390012021D742812021D740C12021D7401127F
:10024900021DC0027A021201D3D00222E493600691
:10025900120218A380F6224440448002021DC0E025
:10026900E8C4540F4430120218E8540F4430120203
:0402790018D0E02297
:10027D00753D00753F3C75409675412D7542D922EF
:10028D00C0E0740114120262D0E0C083C082C0E0ED
:10029D009001A7120255D0E0D082D083C0E0740146
:1002AD0014120260D0E0C083C082C0E090003E1204
:1002BD000255D0E0D082D0837AFA12027D120F8BD4
:0302CD000210BE5E
:1002D000744012021D741F120218741F1202187447
:1002E0001F120218741F120218741F120218741FB2
:1002F000120218741F120218741F12021874481286
:10030000021D741C120218741E120218741E1202AE
:1003100018741E120218741E120218741E1202188B
:10032000741E120218741C120218745012021D74EA
:10033000181202187418120218741C120218741C75
:10034000120218741C120218741C1202187418126B
:1003500002187418120218745812021D7410120236
:10036000187410120218741012021874181202185D
:1003700074181202187410120218741012021874F1
:100380001012021822C0E0740114120260D0E0B40E
:1003900000030203C7B4010874031202180203C762
:1003A000B4020874021202180203C7B403087401ED
:1003B0001202180203C7C0E07400120218D0E0C392
:0803C0009404400302038F22A4
:1003C800C0E0C0D0C000C001C002E4F538F539F57E
:1003D8003AF53BF53C7A20E533A2E779047830E634
:1003E80033F608D9FA79057838E636D4F608D9F913
:1003F800DAE5D002D001D000D0D0D0E022C0E0C0F1
:10040800D0C000C001C002E4F538F539F53AF53B33
:10041800F53C7A20E533A2E779047830E633F6082C
:10042800D9FA79057838C0D0E6243320E70224D0F9
:1004380020E30224FDD0D033F608D9EADAD6D00278
:10044800D001D000D0D0D0E022C0E0C0D0C000C0E1
:1004580001C0027A207905C3783CE613C0D030E7A2
:100468000224D030E30224FDF618D0D0D9EC790468
:100478007833E613F618D9FADADBD002D001D000C7
:10048800D0D0D0E022C0E0C0D0E5302534F530E54A
:10049800313535F531E5323536F532E5333537F571
:1004A80033D0D0D0E022C0E0C0D0C3E5309534F5D9
:1004B80030E5319535F531E5329536F532E5339548
:1004C80037F533D0D0D0E022C0E0C0D0C3E53095B6
:1004D80034E5319535E5329536E53395379205D0D3
:1004E800D0D0E022C0E0C0D0C3E5349530E53595E2
:1004F80031E5369532E53795339205D0D0D0E022F4
:10050800C0E0C0D0C205C3E53495307014E5359518
:1005180031700EE53695327008E53795337002D2A2
:1005280005D0D0D0E0221205082005030204EC22F1
:100538001205082005030204D022C0E0C0F0C0D094
:10054800C000C001C002C003E5308534F0A4F8A99A
:10055800F0E5318534F0A429F9E435F0FAE5308581
:1005680035F0A429F9E5F03AFAE433FBE5328534AD
:10057800F0A42AFAE5F03BFBE5318535F0A42AFA28
:10058800E5F03BFBE5308536F0A42AFAE5F03BFBC5
:10059800E5338534F0A42BFBE5328535F0A42BFB3D
:1005A800E5318536F0A42BFBE5308537F0A42BFB2D
:1005B8008B338A3289318830D003D002D001D00001
:1005C800D0D0D0F0D0E022C0E0C0D0C000C001C080
:1005D80002C003C0047C20E4F8F9FAFBC3E5303319
:1005E800F530E53133F531E53233F532E53333F5BE
:1005F80033E833F8E933F9EA33FAEB33FBC3E89528
:1006080034E99535EA9536EB95374013E89534F893
:10061800E99535F9EA9536FAEB9537FB433001DC75
:10062800BBD004D003D002D001D000D0D0D0E0227B
:1006380075AC0075AD0075B30075B40075B1007583
:10064800B20043B30253B4FD53E1FD43B21053B2B9
:10065800EF53E8F043E80522C034C035C036C03750
:1006680053E1FD53E8F043E80775F60043F680C20E
:10067800EFD2EE30EFFDE5C3C4C0E0540FF9D0E08F
:1006880054F045C2F88830893175320075330075E9
:10069800348C75350575360075370012054275348A
:1006A800007535D47536307537001204AEA830A9F8
:1006B80031AD32AE33C000C001C005C00653E1FD04
:1006C80053E8F043E80575F60043F620C2EFD2EE92
:1006D80030EFFDE5C3C4C0E0540FFCD0E054F04552
:1006E800C2FB8B308C317532007533007534A075C0
:1006F800358675360175370012054275346F7535C4
:10070800007536007537001205CFD006D005D00128
:10071800D000883489358D368E3712048DD037D085
:1007280036D035D03422C030C031C032C033120682
:1007380060853034853135853236853337D033D0CE
:0607480032D031D0302256
:10074E00754900753E0022754A00D208C0E074015A
:10075E0014120262D0E0C083C082C0E090012D125C
:10076E000255D0E0D082D083C0E074011412026032
:10077E00D0E0C083C082C0E090003E120255D0E0AF
:10078E00D082D0831202D0020E74854030753100B3
:10079E007532007533007534E8753503753600759E
:1007AE003700120542C030C031C032C03312072E9E
:1007BE00C034C035C036C037D033D032D031D0304F
:1007CE00D037D036D035D034C0D0C0E0C030C031F4
:1007DE00C032C033C034C035C036C037753404752E
:1007EE003500753600753700120542D037D036D039
:1007FE0035D0341205CFC0E0740114120260D0E07F
:10080E00C083C082C0E090003E120255D0E0D0827C
:10081E00D083E530120385C0E0740B14120260D051
:10082E00E0D033D032D031D0301203C8C000A83B54
:10083E00120267D000C000A83A120267D000C0E0D2
:10084E00746F120218D0E0C0E07443120218D0E0A8
:10085E00D0E0D0D07AFF120F8B7549647530967543
:10086E0031007532007533007534107535277536C5
:10087E0000753700120542C030C031C032C033128D
:10088E00072ED033D032D031D030C20512053820E9
:10089E000503020795754A00C0E074011412026246
:1008AE00D0E0C083C082C0E090013E120255D0E07D
:1008BE00D082D083C0E0740114120260D0E0C083F5
:1008CE00C082C0E090003E120255D0E0D082D083AC
:1008DE00020E74854A30753100753200753300850D
:1008EE003F34753500753600753700C0D0C0E0C096
:1008FE0034C035C036C037C030C031C032C033C04E
:10090E0034C035C036C0377534287535007536009D
:10091E00753700120542D037D036D035D034120597
:10092E00CFC0E0740114120260D0E0C083C082C058
:10093E00E090003E120255D0E0D082D083E5301216
:10094E000385D037D036D035D034D033D032D031F5
:10095E00D0301204AEC030C031C032C03375343C1A
:10096E007535007536007537001205CF75343C7538
:10097E003500753600753700120542C030C031C0E3
:10098E0032C033D037D036D035D034D033D032D049
:10099E0031D0301204AEC030C031C032C033C0349A
:1009AE00C035C036C037D033D032D031D0307534A8
:1009BE003C7535007536007537001205CF753464F9
:1009CE00753500753600753700120542D037D036B2
:1009DE00D035D03412048D1203C8C0E0740C14123A
:1009EE000260D0E0C000A839120267D000C0E074E7
:1009FE003A120218D0E0C000A838120267D0007A6E
:100A0E0014120F8BD0E0D0D0754914C3E53F954A30
:100A1E00500280030208DE754A00C0E07401141211
:100A2E000262D0E0C083C082C0E090014D12025538
:100A3E00D0E0D082D083C0E0740114120260D0E006
:100A4E00C083C082C0E090003E120255D0E0D0823A
:100A5E00D083020E747530427531007532007533D5
:100A6E0000C030C031C032C0337534E875350375FF
:100A7E003600753700120542C030C031C032C03367
:100A8E0012072EC034C035C036C037D033D032D066
:100A9E0031D030D037D036D035D034C0D0C0E0C011
:100AAE0030C031C032C033C034C035C036C03775E7
:100ABE003404753500753600753700120542D0378F
:100ACE00D036D035D0341205CFC0E07401141202E6
:100ADE0060D0E0C083C082C0E090003E120255D0CC
:100AEE00E0D082D083E530120385C0E0740B14127F
:100AFE000260D0E0D033D032D031D0301203C8C033
:100B0E0000A83B120267D000C000A83A120267D0BC
:100B1E0000C0E0746F120218D0E0C0E074431202FD
:100B2E0018D0E0D0E0D0D0754964D033D032D03177
:100B3E00D0307534107535277536007537001205AF
:100B4E0042C030C031C032C03312072ED033D03243
:100B5E00D031D030C205120538200503020A607567
:100B6E004A00C0E0740114120262D0E0C083C08259
:100B7E00C0E090015E120255D0E0D082D083C0E07A
:100B8E00740114120260D0E0C083C082C0E09000F5
:100B9E003E120255D0E0D082D083020E74854A30C8
:100BAE007531007532007533007534417535007539
:100BBE003600753700C0D0C0E0C034C035C036C076
:100BCE0037C030C031C032C033C034C035C036C07B
:100BDE0037753428753500753600753700120542A5
:100BEE00D037D036D035D0341205CFC0E0740114D2
:100BFE00120260D0E0C083C082C0E090003E1202BC
:100C0E0055D0E0D082D083E530120385D037D03670
:100C1E00D035D034D033D032D031D0301204AEC033
:100C2E0030C031C032C03375343C75350075360076
:100C3E007537001205CF75343C7535007536007565
:100C4E003700120542C030C031C032C033D037D069
:100C5E0036D035D034D033D032D031D0301204AE7D
:100C6E00C030C031C032C033C034C035C036C037DA
:100C7E00D033D032D031D03075343C753500753626
:100C8E00007537001205CF75346475350075360062
:100C9E00753700120542D037D036D035D034120415
:100CAE008D1203C8C0E0740C14120260D0E0C000B4
:100CBE00A839120267D000C0E0743A120218D0E0D0
:100CCE00C000A838120267D0007A14120F8BD0E041
:100CDE00D0D0754914C3742D954A50028003020B6F
:100CEE00A8754A00C0E0740114120262D0E0C083FD
:100CFE00C082C0E0900169120255D0E0D082D0834C
:100D0E00C0E0740114120260D0E0C083C082C0E063
:100D1E0090003E120255D0E0D082D08385403075CF
:100D2E0031007532007533007534E875350375364C
:100D3E0000753700120542C030C031C032C03312C8
:100D4E00072EC034C035C036C037D033D032D03184
:100D5E00D030D037D036D035D034C0D0C0E0C0344B
:100D6E00C035C036C037C034C035C036C037753414
:100D7E0004753500753600753700120542D037D030
:100D8E0036D035D0341205CFC0E074011412026093
:100D9E00D0E0C083C082C0E090003E120255D0E089
:100DAE00D082D083E530120385C0E0740B1412029A
:100DBE0060D0E0D033D032D031D0301203C8C00072
:100DCE00A83B120267D000C000A83A120267D000FA
:100DDE00C0E0746F120218D0E0C0E0744312021823
:100DEE00D0E0D0E0D0D075490075303C753100753B
:100DFE00320075330075341075352775360075372A
:100E0E0000120542C030C031C032C03312072ED09E
:100E1E0033D032D031D030C20512052E2005030258
:100E2E000D2A754A00C0E0740114120262D0E0C0AF
:100E3E0083C082C0E090011E120255D0E0D082D055
:100E4E0083C0E0740114120260D0E0C083C082C07F
:100E5E00E090003E120255D0E0D082D0837AFF128D
:100E6E000F8B120F8B22121010A200500122C0E025
:100E7E00740114120262D0E0C083C082C0E09001FF
:100E8E0085120255D0E0D082D083C0E074011412D6
:100E9E000260D0E0C083C082C0E09001961202557D
:100EAE00D0E0D082D083754900020E6B3099FDC21E
:0F0EBE0099F59922E4936006120EBAA380F622EA
:100ECD00E53B540F2430120EBAE53A54F0C42430E9
:100EDD00120EBAE53A540F2430120EBA742E120EB9
:100EED00BAE539C4540F2430120EBAE539540F2423
:100EFD0030120EBAE538C4540F2430120EBAE5384C
:100F0D00540F2430120EBA7443120EBA740D120E11
:100F1D00BA740A120EBA2275AC0075AD0075B30025
:100F2D0075B40075B10075B20079C87868D8FED96E
:100F3D00FA438E1043878075985253C4DF53890F3F
:100F4D00438920758DF7D28EC28C438E085389F05C
:100F5D0043890143B38053B47F75490075480075CB
:100F6D00F60043F60143E101120FADD2AF22C28C60
:100F7D00C28D758CBF758A28D28C308DFD22120FD3
:100F8D007BDAFB22C000A83A120267D000C000A88D
:100F9D0039120267D000C000A838120267D00022B3
:100FAD0075C80075CDD775CC7975C9A075CBD775BA
:100FBD00CA79E4F544F545754A00C206439B80D2D3
:100FCD00CA22C2CFC0E0C0D0C034C035C036C03791
:100FDD00C030C031C032C0330548C3E5499548B370
:100FED009290E548B46407754800054AD206D0339F
:100FFD00D032D031D030D037D036D035D034D0D02B
:10100D00D0E032C0E053E8F043E800C2EFD2EE305A
:10101D00EFFDD204D203D202D201D200C3E5C394B4
:10102D00B04005C204D0E022C3E5C394904005C290
:10103D0003D0E022C3E5C394704005C202D0E02284
:10104D00C3E5C394504005C201D0E022C3E5C3946B
:10105D00304005C200D0E022C3E5C394104003D058
:10106D00E022D0E02275817F120638120F24120281
:10107D002212027DC0E0740114120262D0E0C0831E
:10108D00C082C0E090002E120255D0E0D082D083F5
:10109D00C0E0740114120260D0E0C083C082C0E0D1
:1010AD0090003E120255D0E0D082D0837AFA120F12
:1010BD008B7A32120F8B1206601203C8120ECD30CE
:1010CD000604C206B2957A32120F8B0210DBE53D93
:1010DD00B4004CC0E0740114120262D0E0C083C0B1
:1010ED0082C0E090004F120255D0E0D082D083C074
:1010FD00E0740114120260D0E0C083C082C0E090A1
:10110D000060120255D0E0D082D0837AFA120F8B94
:10111D0012133B1213461214090210BE0211B1B480
:10112D0001FAC0E0740114120262D0E0C083C082E3
:10113D00C0E0900071120255D0E0D082D083C0E0A3
:10114D00740114120260D0E0C083C082C0E0900030
:10115D0082120255D0E0D082D083C005AD30853FDC
:10116D0030753100753200753300C0E0740B141208
:10117D000260D0E01203C8120F918D30D00512130A
:10118D003BC003C004C0057B3C7C78AD3F12137996
:10119D001213C18D3FD005D004D0031214091213C0
:1011AD00460210BEB402030211BA021246C0E07428
:1011BD000114120262D0E0C083C082C0E09000939F
:1011CD00120255D0E0D082D083C0E0740114120217
:1011DD0060D0E0C083C082C0E09000A4120255D060
:1011ED00E0D082D083C0E0740B14120260D0E0C056
:1011FD0005C030C031C032C0338540307531007507
:10120D0032007533001203C8120F91D033D032D093
:10121D0031D03012133BC003C004C0057B967CC88F
:10122D00AD401213791213C18D40D005D004D003F7
:10123D001214091213460210BEB40379C0E07401F2
:10124D0014120262D0E0C083C082C0E09000B512DB
:10125D000255D0E0D082D083C0E074011412026038
:10126D00D0E0C083C082C0E09000C6120255D0E02D
:10127D00D082D083C0E0740B14120260D0E0C005A0
:10128D00AD308541301203C8120F918D30D005124B
:10129D00133BC003C004C0057B007C2DAD41121370
:1012AD00791213C18D41D005D004D0031214091247
:1012BD0013460210BEC0E0740114120262D0E0C0E9
:1012CD0083C082C0E09000D7120255D0E0D082D00A
:1012DD0083C0E0740114120260D0E0C083C082C0EC
:1012ED00E09000E8120255D0E0D082D083C0E074C7
:1012FD000B14120260D0E0C005AD308542301203F0
:10130D00C8120F918D30D00512133BC003C004C01D
:10131D00057BD97CF0AD421213791213C18D42D0E9
:10132D0005D004D0031214091213460210BE121078
:10133D0010A20450012202028D121010A2035001BE
:10134D0022853D30753100753200753300753404DA
:10135D00753500753600753700120508D320050761
:10136D00E53D3400F53D22C3753D0022121010A25B
:10137D00025001228C307531007532007533008DAD
:10138D00347535007536007537001204ECD3300511
:10139D0005ED3400FD22C3C0E0740B14120260D0C1
:1013AD00E0C083C082C0E09000F9120255D0E0D0B9
:1013BD0082D08322121010A2015001228B30753180
:1013CD00007532007533008D347535007536007536
:1013DD0037001204D0D3300505ED9400FD22C3C0B3
:1013ED00E0740B14120260D0E0C083C082C0E090A4
:1013FD000103120255D0E0D082D08322121010A228
:07140D000050012202075507
:00000001FF
